{
	"access/FarmerRole.sol": {
		"FarmerRole": {
			"abi": [
				{
					"inputs": [],
					"stateMutability": "nonpayable",
					"type": "constructor"
				},
				{
					"anonymous": false,
					"inputs": [
						{
							"indexed": true,
							"internalType": "address",
							"name": "account",
							"type": "address"
						}
					],
					"name": "FarmerAdded",
					"type": "event"
				},
				{
					"anonymous": false,
					"inputs": [
						{
							"indexed": true,
							"internalType": "address",
							"name": "account",
							"type": "address"
						}
					],
					"name": "FarmerRemoved",
					"type": "event"
				},
				{
					"inputs": [
						{
							"internalType": "address",
							"name": "account",
							"type": "address"
						}
					],
					"name": "addFarmer",
					"outputs": [],
					"stateMutability": "nonpayable",
					"type": "function"
				},
				{
					"inputs": [
						{
							"internalType": "address",
							"name": "account",
							"type": "address"
						}
					],
					"name": "isFarmer",
					"outputs": [
						{
							"internalType": "bool",
							"name": "",
							"type": "bool"
						}
					],
					"stateMutability": "view",
					"type": "function"
				},
				{
					"inputs": [],
					"name": "renounceFarmer",
					"outputs": [],
					"stateMutability": "nonpayable",
					"type": "function"
				}
			],
			"devdoc": {
				"kind": "dev",
				"methods": {},
				"version": 1
			},
			"evm": {
				"assembly": "    /* \"access/FarmerRole.sol\":193:1815  contract FarmerRole is Context {... */\n  mstore(0x40, 0x80)\n    /* \"access/FarmerRole.sol\":635:699  constructor() public {... */\n  callvalue\n  dup1\n  iszero\n  tag_1\n  jumpi\n  0x00\n  dup1\n  revert\ntag_1:\n  pop\n    /* \"access/FarmerRole.sol\":667:691  _addFarmer(_msgSender()) */\n  tag_4\n    /* \"access/FarmerRole.sol\":678:690  _msgSender() */\n  tag_5\n    /* \"access/FarmerRole.sol\":678:688  _msgSender */\n  shl(0x20, tag_6)\n    /* \"access/FarmerRole.sol\":678:690  _msgSender() */\n  0x20\n  shr\n  jump\t// in\ntag_5:\n    /* \"access/FarmerRole.sol\":667:677  _addFarmer */\n  shl(0x20, tag_7)\n    /* \"access/FarmerRole.sol\":667:691  _addFarmer(_msgSender()) */\n  0x20\n  shr\n  jump\t// in\ntag_4:\n    /* \"access/FarmerRole.sol\":193:1815  contract FarmerRole is Context {... */\n  jump(tag_8)\n    /* \"utils/Context.sol\":602:700  function _msgSender() internal view virtual returns (address) {... */\ntag_6:\n    /* \"utils/Context.sol\":655:662  address */\n  0x00\n    /* \"utils/Context.sol\":682:692  msg.sender */\n  caller\n    /* \"utils/Context.sol\":675:692  return msg.sender */\n  swap1\n  pop\n    /* \"utils/Context.sol\":602:700  function _msgSender() internal view virtual returns (address) {... */\n  swap1\n  jump\t// out\n    /* \"access/FarmerRole.sol\":1456:1577  function _addFarmer(address account) internal {... */\ntag_7:\n    /* \"access/FarmerRole.sol\":1513:1533  farmers.add(account) */\n  tag_11\n    /* \"access/FarmerRole.sol\":1525:1532  account */\n  dup2\n    /* \"access/FarmerRole.sol\":1513:1520  farmers */\n  0x00\n    /* \"access/FarmerRole.sol\":1513:1524  farmers.add */\n  or(tag_0_17, shl(0x20, tag_12))\n  swap1\n    /* \"access/FarmerRole.sol\":1513:1533  farmers.add(account) */\n  swap2\n  swap1\n  0x20\n  shr\n  jump\t// in\ntag_11:\n    /* \"access/FarmerRole.sol\":1561:1568  account */\n  dup1\n    /* \"access/FarmerRole.sol\":1549:1569  FarmerAdded(account) */\n  0xffffffffffffffffffffffffffffffffffffffff\n  and\n  0x2e0ded4123377a3c2bc9a26f1717655a129e2f20752924d42e730ec89c83dbd0\n  mload(0x40)\n  mload(0x40)\n  dup1\n  swap2\n  sub\n  swap1\n  log2\n    /* \"access/FarmerRole.sol\":1456:1577  function _addFarmer(address account) internal {... */\n  pop\n  jump\t// out\n    /* \"access/Roles.sol\":305:491  function add(Role storage role, address account) internal {... */\ntag_12:\n    /* \"access/Roles.sol\":401:402  0 */\n  0x00\n    /* \"access/Roles.sol\":382:403  account != address(0) */\n  0xffffffffffffffffffffffffffffffffffffffff\n  and\n    /* \"access/Roles.sol\":382:389  account */\n  dup2\n    /* \"access/Roles.sol\":382:403  account != address(0) */\n  0xffffffffffffffffffffffffffffffffffffffff\n  and\n  sub\n    /* \"access/Roles.sol\":374:404  require(account != address(0)) */\n  tag_14\n  jumpi\n  0x00\n  dup1\n  revert\ntag_14:\n    /* \"access/Roles.sol\":424:442  has(role, account) */\n  tag_15\n    /* \"access/Roles.sol\":428:432  role */\n  dup3\n    /* \"access/Roles.sol\":434:441  account */\n  dup3\n    /* \"access/Roles.sol\":424:427  has */\n  shl(0x20, tag_16)\n    /* \"access/Roles.sol\":424:442  has(role, account) */\n  0x20\n  shr\n  jump\t// in\ntag_15:\n    /* \"access/Roles.sol\":423:442  !has(role, account) */\n  iszero\n    /* \"access/Roles.sol\":415:443  require(!has(role, account)) */\n  tag_17\n  jumpi\n  0x00\n  dup1\n  revert\ntag_17:\n    /* \"access/Roles.sol\":479:483  true */\n  0x01\n    /* \"access/Roles.sol\":456:460  role */\n  dup3\n    /* \"access/Roles.sol\":456:467  role.bearer */\n  0x00\n  add\n    /* \"access/Roles.sol\":456:476  role.bearer[account] */\n  0x00\n    /* \"access/Roles.sol\":468:475  account */\n  dup4\n    /* \"access/Roles.sol\":456:476  role.bearer[account] */\n  0xffffffffffffffffffffffffffffffffffffffff\n  and\n  0xffffffffffffffffffffffffffffffffffffffff\n  and\n  dup2\n  mstore\n  0x20\n  add\n  swap1\n  dup2\n  mstore\n  0x20\n  add\n  0x00\n  keccak256\n  0x00\n    /* \"access/Roles.sol\":456:483  role.bearer[account] = true */\n  0x0100\n  exp\n  dup2\n  sload\n  dup2\n  0xff\n  mul\n  not\n  and\n  swap1\n  dup4\n  iszero\n  iszero\n  mul\n  or\n  swap1\n  sstore\n  pop\n    /* \"access/Roles.sol\":305:491  function add(Role storage role, address account) internal {... */\n  pop\n  pop\n  jump\t// out\n    /* \"access/Roles.sol\":853:1050  function has(Role storage role, address account)... */\ntag_16:\n    /* \"access/Roles.sol\":952:956  bool */\n  0x00\n    /* \"access/Roles.sol\":1001:1002  0 */\n  dup1\n    /* \"access/Roles.sol\":982:1003  account != address(0) */\n  0xffffffffffffffffffffffffffffffffffffffff\n  and\n    /* \"access/Roles.sol\":982:989  account */\n  dup3\n    /* \"access/Roles.sol\":982:1003  account != address(0) */\n  0xffffffffffffffffffffffffffffffffffffffff\n  and\n  sub\n    /* \"access/Roles.sol\":974:1004  require(account != address(0)) */\n  tag_19\n  jumpi\n  0x00\n  dup1\n  revert\ntag_19:\n    /* \"access/Roles.sol\":1022:1026  role */\n  dup3\n    /* \"access/Roles.sol\":1022:1033  role.bearer */\n  0x00\n  add\n    /* \"access/Roles.sol\":1022:1042  role.bearer[account] */\n  0x00\n    /* \"access/Roles.sol\":1034:1041  account */\n  dup4\n    /* \"access/Roles.sol\":1022:1042  role.bearer[account] */\n  0xffffffffffffffffffffffffffffffffffffffff\n  and\n  0xffffffffffffffffffffffffffffffffffffffff\n  and\n  dup2\n  mstore\n  0x20\n  add\n  swap1\n  dup2\n  mstore\n  0x20\n  add\n  0x00\n  keccak256\n  0x00\n  swap1\n  sload\n  swap1\n  0x0100\n  exp\n  swap1\n  div\n  0xff\n  and\n    /* \"access/Roles.sol\":1015:1042  return role.bearer[account] */\n  swap1\n  pop\n    /* \"access/Roles.sol\":853:1050  function has(Role storage role, address account)... */\n  swap3\n  swap2\n  pop\n  pop\n  jump\t// out\n    /* \"access/FarmerRole.sol\":193:1815  contract FarmerRole is Context {... */\ntag_8:\n  dataSize(sub_0)\n  dup1\n  dataOffset(sub_0)\n  0x00\n  codecopy\n  0x00\n  return\nstop\n\nsub_0: assembly {\n        /* \"access/FarmerRole.sol\":193:1815  contract FarmerRole is Context {... */\n      mstore(0x40, 0x80)\n      callvalue\n      dup1\n      iszero\n      tag_1\n      jumpi\n      0x00\n      dup1\n      revert\n    tag_1:\n      pop\n      jumpi(tag_2, lt(calldatasize, 0x04))\n      shr(0xe0, calldataload(0x00))\n      dup1\n      0x80c3f96d\n      eq\n      tag_3\n      jumpi\n      dup1\n      0x80fc0ce4\n      eq\n      tag_4\n      jumpi\n      dup1\n      0xb9429069\n      eq\n      tag_5\n      jumpi\n    tag_2:\n      0x00\n      dup1\n      revert\n        /* \"access/FarmerRole.sol\":1115:1207  function addFarmer(address account) public onlyFarmer {... */\n    tag_3:\n      tag_6\n      0x04\n      dup1\n      calldatasize\n      sub\n      dup2\n      add\n      swap1\n      tag_7\n      swap2\n      swap1\n      tag_8\n      jump\t// in\n    tag_7:\n      tag_9\n      jump\t// in\n    tag_6:\n      stop\n        /* \"access/FarmerRole.sol\":1280:1359  function renounceFarmer() public {... */\n    tag_4:\n      tag_10\n      tag_11\n      jump\t// in\n    tag_10:\n      stop\n        /* \"access/FarmerRole.sol\":941:1049  function isFarmer(address account) public view returns (bool) {... */\n    tag_5:\n      tag_12\n      0x04\n      dup1\n      calldatasize\n      sub\n      dup2\n      add\n      swap1\n      tag_13\n      swap2\n      swap1\n      tag_8\n      jump\t// in\n    tag_13:\n      tag_14\n      jump\t// in\n    tag_12:\n      mload(0x40)\n      tag_15\n      swap2\n      swap1\n      tag_16\n      jump\t// in\n    tag_15:\n      mload(0x40)\n      dup1\n      swap2\n      sub\n      swap1\n      return\n        /* \"access/FarmerRole.sol\":1115:1207  function addFarmer(address account) public onlyFarmer {... */\n    tag_9:\n        /* \"access/FarmerRole.sol\":834:856  isFarmer(_msgSender()) */\n      tag_19\n        /* \"access/FarmerRole.sol\":843:855  _msgSender() */\n      tag_20\n        /* \"access/FarmerRole.sol\":843:853  _msgSender */\n      tag_21\n        /* \"access/FarmerRole.sol\":843:855  _msgSender() */\n      jump\t// in\n    tag_20:\n        /* \"access/FarmerRole.sol\":834:842  isFarmer */\n      tag_14\n        /* \"access/FarmerRole.sol\":834:856  isFarmer(_msgSender()) */\n      jump\t// in\n    tag_19:\n        /* \"access/FarmerRole.sol\":826:857  require(isFarmer(_msgSender())) */\n      tag_22\n      jumpi\n      0x00\n      dup1\n      revert\n    tag_22:\n        /* \"access/FarmerRole.sol\":1180:1199  _addFarmer(account) */\n      tag_24\n        /* \"access/FarmerRole.sol\":1191:1198  account */\n      dup2\n        /* \"access/FarmerRole.sol\":1180:1190  _addFarmer */\n      tag_25\n        /* \"access/FarmerRole.sol\":1180:1199  _addFarmer(account) */\n      jump\t// in\n    tag_24:\n        /* \"access/FarmerRole.sol\":1115:1207  function addFarmer(address account) public onlyFarmer {... */\n      pop\n      jump\t// out\n        /* \"access/FarmerRole.sol\":1280:1359  function renounceFarmer() public {... */\n    tag_11:\n        /* \"access/FarmerRole.sol\":1324:1351  _removeFarmer(_msgSender()) */\n      tag_27\n        /* \"access/FarmerRole.sol\":1338:1350  _msgSender() */\n      tag_28\n        /* \"access/FarmerRole.sol\":1338:1348  _msgSender */\n      tag_21\n        /* \"access/FarmerRole.sol\":1338:1350  _msgSender() */\n      jump\t// in\n    tag_28:\n        /* \"access/FarmerRole.sol\":1324:1337  _removeFarmer */\n      tag_29\n        /* \"access/FarmerRole.sol\":1324:1351  _removeFarmer(_msgSender()) */\n      jump\t// in\n    tag_27:\n        /* \"access/FarmerRole.sol\":1280:1359  function renounceFarmer() public {... */\n      jump\t// out\n        /* \"access/FarmerRole.sol\":941:1049  function isFarmer(address account) public view returns (bool) {... */\n    tag_14:\n        /* \"access/FarmerRole.sol\":997:1001  bool */\n      0x00\n        /* \"access/FarmerRole.sol\":1021:1041  farmers.has(account) */\n      tag_31\n        /* \"access/FarmerRole.sol\":1033:1040  account */\n      dup3\n        /* \"access/FarmerRole.sol\":1021:1028  farmers */\n      0x00\n        /* \"access/FarmerRole.sol\":1021:1032  farmers.has */\n      tag_32\n      swap1\n        /* \"access/FarmerRole.sol\":1021:1041  farmers.has(account) */\n      swap2\n      swap1\n      0xffffffff\n      and\n      jump\t// in\n    tag_31:\n        /* \"access/FarmerRole.sol\":1014:1041  return farmers.has(account) */\n      swap1\n      pop\n        /* \"access/FarmerRole.sol\":941:1049  function isFarmer(address account) public view returns (bool) {... */\n      swap2\n      swap1\n      pop\n      jump\t// out\n        /* \"access/Roles.sol\":305:491  function add(Role storage role, address account) internal {... */\n    tag_17:\n        /* \"access/Roles.sol\":401:402  0 */\n      0x00\n        /* \"access/Roles.sol\":382:403  account != address(0) */\n      0xffffffffffffffffffffffffffffffffffffffff\n      and\n        /* \"access/Roles.sol\":382:389  account */\n      dup2\n        /* \"access/Roles.sol\":382:403  account != address(0) */\n      0xffffffffffffffffffffffffffffffffffffffff\n      and\n      sub\n        /* \"access/Roles.sol\":374:404  require(account != address(0)) */\n      tag_34\n      jumpi\n      0x00\n      dup1\n      revert\n    tag_34:\n        /* \"access/Roles.sol\":424:442  has(role, account) */\n      tag_35\n        /* \"access/Roles.sol\":428:432  role */\n      dup3\n        /* \"access/Roles.sol\":434:441  account */\n      dup3\n        /* \"access/Roles.sol\":424:427  has */\n      tag_32\n        /* \"access/Roles.sol\":424:442  has(role, account) */\n      jump\t// in\n    tag_35:\n        /* \"access/Roles.sol\":423:442  !has(role, account) */\n      iszero\n        /* \"access/Roles.sol\":415:443  require(!has(role, account)) */\n      tag_36\n      jumpi\n      0x00\n      dup1\n      revert\n    tag_36:\n        /* \"access/Roles.sol\":479:483  true */\n      0x01\n        /* \"access/Roles.sol\":456:460  role */\n      dup3\n        /* \"access/Roles.sol\":456:467  role.bearer */\n      0x00\n      add\n        /* \"access/Roles.sol\":456:476  role.bearer[account] */\n      0x00\n        /* \"access/Roles.sol\":468:475  account */\n      dup4\n        /* \"access/Roles.sol\":456:476  role.bearer[account] */\n      0xffffffffffffffffffffffffffffffffffffffff\n      and\n      0xffffffffffffffffffffffffffffffffffffffff\n      and\n      dup2\n      mstore\n      0x20\n      add\n      swap1\n      dup2\n      mstore\n      0x20\n      add\n      0x00\n      keccak256\n      0x00\n        /* \"access/Roles.sol\":456:483  role.bearer[account] = true */\n      0x0100\n      exp\n      dup2\n      sload\n      dup2\n      0xff\n      mul\n      not\n      and\n      swap1\n      dup4\n      iszero\n      iszero\n      mul\n      or\n      swap1\n      sstore\n      pop\n        /* \"access/Roles.sol\":305:491  function add(Role storage role, address account) internal {... */\n      pop\n      pop\n      jump\t// out\n        /* \"utils/Context.sol\":602:700  function _msgSender() internal view virtual returns (address) {... */\n    tag_21:\n        /* \"utils/Context.sol\":655:662  address */\n      0x00\n        /* \"utils/Context.sol\":682:692  msg.sender */\n      caller\n        /* \"utils/Context.sol\":675:692  return msg.sender */\n      swap1\n      pop\n        /* \"utils/Context.sol\":602:700  function _msgSender() internal view virtual returns (address) {... */\n      swap1\n      jump\t// out\n        /* \"access/FarmerRole.sol\":1456:1577  function _addFarmer(address account) internal {... */\n    tag_25:\n        /* \"access/FarmerRole.sol\":1513:1533  farmers.add(account) */\n      tag_39\n        /* \"access/FarmerRole.sol\":1525:1532  account */\n      dup2\n        /* \"access/FarmerRole.sol\":1513:1520  farmers */\n      0x00\n        /* \"access/FarmerRole.sol\":1513:1524  farmers.add */\n      tag_17\n      swap1\n        /* \"access/FarmerRole.sol\":1513:1533  farmers.add(account) */\n      swap2\n      swap1\n      0xffffffff\n      and\n      jump\t// in\n    tag_39:\n        /* \"access/FarmerRole.sol\":1561:1568  account */\n      dup1\n        /* \"access/FarmerRole.sol\":1549:1569  FarmerAdded(account) */\n      0xffffffffffffffffffffffffffffffffffffffff\n      and\n      0x2e0ded4123377a3c2bc9a26f1717655a129e2f20752924d42e730ec89c83dbd0\n      mload(0x40)\n      mload(0x40)\n      dup1\n      swap2\n      sub\n      swap1\n      log2\n        /* \"access/FarmerRole.sol\":1456:1577  function _addFarmer(address account) internal {... */\n      pop\n      jump\t// out\n        /* \"access/FarmerRole.sol\":1683:1812  function _removeFarmer(address account) internal {... */\n    tag_29:\n        /* \"access/FarmerRole.sol\":1743:1766  farmers.remove(account) */\n      tag_41\n        /* \"access/FarmerRole.sol\":1758:1765  account */\n      dup2\n        /* \"access/FarmerRole.sol\":1743:1750  farmers */\n      0x00\n        /* \"access/FarmerRole.sol\":1743:1757  farmers.remove */\n      tag_42\n      swap1\n        /* \"access/FarmerRole.sol\":1743:1766  farmers.remove(account) */\n      swap2\n      swap1\n      0xffffffff\n      and\n      jump\t// in\n    tag_41:\n        /* \"access/FarmerRole.sol\":1796:1803  account */\n      dup1\n        /* \"access/FarmerRole.sol\":1782:1804  FarmerRemoved(account) */\n      0xffffffffffffffffffffffffffffffffffffffff\n      and\n      0xa5e0f060af304ab17dd418c7927e3da3ae7868189bf387aee09ab179ccc572f2\n      mload(0x40)\n      mload(0x40)\n      dup1\n      swap2\n      sub\n      swap1\n      log2\n        /* \"access/FarmerRole.sol\":1683:1812  function _removeFarmer(address account) internal {... */\n      pop\n      jump\t// out\n        /* \"access/Roles.sol\":853:1050  function has(Role storage role, address account)... */\n    tag_32:\n        /* \"access/Roles.sol\":952:956  bool */\n      0x00\n        /* \"access/Roles.sol\":1001:1002  0 */\n      dup1\n        /* \"access/Roles.sol\":982:1003  account != address(0) */\n      0xffffffffffffffffffffffffffffffffffffffff\n      and\n        /* \"access/Roles.sol\":982:989  account */\n      dup3\n        /* \"access/Roles.sol\":982:1003  account != address(0) */\n      0xffffffffffffffffffffffffffffffffffffffff\n      and\n      sub\n        /* \"access/Roles.sol\":974:1004  require(account != address(0)) */\n      tag_44\n      jumpi\n      0x00\n      dup1\n      revert\n    tag_44:\n        /* \"access/Roles.sol\":1022:1026  role */\n      dup3\n        /* \"access/Roles.sol\":1022:1033  role.bearer */\n      0x00\n      add\n        /* \"access/Roles.sol\":1022:1042  role.bearer[account] */\n      0x00\n        /* \"access/Roles.sol\":1034:1041  account */\n      dup4\n        /* \"access/Roles.sol\":1022:1042  role.bearer[account] */\n      0xffffffffffffffffffffffffffffffffffffffff\n      and\n      0xffffffffffffffffffffffffffffffffffffffff\n      and\n      dup2\n      mstore\n      0x20\n      add\n      swap1\n      dup2\n      mstore\n      0x20\n      add\n      0x00\n      keccak256\n      0x00\n      swap1\n      sload\n      swap1\n      0x0100\n      exp\n      swap1\n      div\n      0xff\n      and\n        /* \"access/Roles.sol\":1015:1042  return role.bearer[account] */\n      swap1\n      pop\n        /* \"access/Roles.sol\":853:1050  function has(Role storage role, address account)... */\n      swap3\n      swap2\n      pop\n      pop\n      jump\t// out\n        /* \"access/Roles.sol\":570:759  function remove(Role storage role, address account) internal {... */\n    tag_42:\n        /* \"access/Roles.sol\":669:670  0 */\n      0x00\n        /* \"access/Roles.sol\":650:671  account != address(0) */\n      0xffffffffffffffffffffffffffffffffffffffff\n      and\n        /* \"access/Roles.sol\":650:657  account */\n      dup2\n        /* \"access/Roles.sol\":650:671  account != address(0) */\n      0xffffffffffffffffffffffffffffffffffffffff\n      and\n      sub\n        /* \"access/Roles.sol\":642:672  require(account != address(0)) */\n      tag_46\n      jumpi\n      0x00\n      dup1\n      revert\n    tag_46:\n        /* \"access/Roles.sol\":691:709  has(role, account) */\n      tag_47\n        /* \"access/Roles.sol\":695:699  role */\n      dup3\n        /* \"access/Roles.sol\":701:708  account */\n      dup3\n        /* \"access/Roles.sol\":691:694  has */\n      tag_32\n        /* \"access/Roles.sol\":691:709  has(role, account) */\n      jump\t// in\n    tag_47:\n        /* \"access/Roles.sol\":683:710  require(has(role, account)) */\n      tag_48\n      jumpi\n      0x00\n      dup1\n      revert\n    tag_48:\n        /* \"access/Roles.sol\":746:751  false */\n      0x00\n        /* \"access/Roles.sol\":723:727  role */\n      dup3\n        /* \"access/Roles.sol\":723:734  role.bearer */\n      0x00\n      add\n        /* \"access/Roles.sol\":723:743  role.bearer[account] */\n      0x00\n        /* \"access/Roles.sol\":735:742  account */\n      dup4\n        /* \"access/Roles.sol\":723:743  role.bearer[account] */\n      0xffffffffffffffffffffffffffffffffffffffff\n      and\n      0xffffffffffffffffffffffffffffffffffffffff\n      and\n      dup2\n      mstore\n      0x20\n      add\n      swap1\n      dup2\n      mstore\n      0x20\n      add\n      0x00\n      keccak256\n      0x00\n        /* \"access/Roles.sol\":723:751  role.bearer[account] = false */\n      0x0100\n      exp\n      dup2\n      sload\n      dup2\n      0xff\n      mul\n      not\n      and\n      swap1\n      dup4\n      iszero\n      iszero\n      mul\n      or\n      swap1\n      sstore\n      pop\n        /* \"access/Roles.sol\":570:759  function remove(Role storage role, address account) internal {... */\n      pop\n      pop\n      jump\t// out\n        /* \"#utility.yul\":88:205   */\n    tag_50:\n        /* \"#utility.yul\":197:198   */\n      0x00\n        /* \"#utility.yul\":194:195   */\n      dup1\n        /* \"#utility.yul\":187:199   */\n      revert\n        /* \"#utility.yul\":334:460   */\n    tag_52:\n        /* \"#utility.yul\":371:378   */\n      0x00\n        /* \"#utility.yul\":411:453   */\n      0xffffffffffffffffffffffffffffffffffffffff\n        /* \"#utility.yul\":404:409   */\n      dup3\n        /* \"#utility.yul\":400:454   */\n      and\n        /* \"#utility.yul\":389:454   */\n      swap1\n      pop\n        /* \"#utility.yul\":334:460   */\n      swap2\n      swap1\n      pop\n      jump\t// out\n        /* \"#utility.yul\":466:562   */\n    tag_53:\n        /* \"#utility.yul\":503:510   */\n      0x00\n        /* \"#utility.yul\":532:556   */\n      tag_64\n        /* \"#utility.yul\":550:555   */\n      dup3\n        /* \"#utility.yul\":532:556   */\n      tag_52\n      jump\t// in\n    tag_64:\n        /* \"#utility.yul\":521:556   */\n      swap1\n      pop\n        /* \"#utility.yul\":466:562   */\n      swap2\n      swap1\n      pop\n      jump\t// out\n        /* \"#utility.yul\":568:690   */\n    tag_54:\n        /* \"#utility.yul\":641:665   */\n      tag_66\n        /* \"#utility.yul\":659:664   */\n      dup2\n        /* \"#utility.yul\":641:665   */\n      tag_53\n      jump\t// in\n    tag_66:\n        /* \"#utility.yul\":634:639   */\n      dup2\n        /* \"#utility.yul\":631:666   */\n      eq\n        /* \"#utility.yul\":621:684   */\n      tag_67\n      jumpi\n        /* \"#utility.yul\":680:681   */\n      0x00\n        /* \"#utility.yul\":677:678   */\n      dup1\n        /* \"#utility.yul\":670:682   */\n      revert\n        /* \"#utility.yul\":621:684   */\n    tag_67:\n        /* \"#utility.yul\":568:690   */\n      pop\n      jump\t// out\n        /* \"#utility.yul\":696:835   */\n    tag_55:\n        /* \"#utility.yul\":742:747   */\n      0x00\n        /* \"#utility.yul\":780:786   */\n      dup2\n        /* \"#utility.yul\":767:787   */\n      calldataload\n        /* \"#utility.yul\":758:787   */\n      swap1\n      pop\n        /* \"#utility.yul\":796:829   */\n      tag_69\n        /* \"#utility.yul\":823:828   */\n      dup2\n        /* \"#utility.yul\":796:829   */\n      tag_54\n      jump\t// in\n    tag_69:\n        /* \"#utility.yul\":696:835   */\n      swap3\n      swap2\n      pop\n      pop\n      jump\t// out\n        /* \"#utility.yul\":841:1170   */\n    tag_8:\n        /* \"#utility.yul\":900:906   */\n      0x00\n        /* \"#utility.yul\":949:951   */\n      0x20\n        /* \"#utility.yul\":937:946   */\n      dup3\n        /* \"#utility.yul\":928:935   */\n      dup5\n        /* \"#utility.yul\":924:947   */\n      sub\n        /* \"#utility.yul\":920:952   */\n      slt\n        /* \"#utility.yul\":917:1036   */\n      iszero\n      tag_71\n      jumpi\n        /* \"#utility.yul\":955:1034   */\n      tag_72\n      tag_50\n      jump\t// in\n    tag_72:\n        /* \"#utility.yul\":917:1036   */\n    tag_71:\n        /* \"#utility.yul\":1075:1076   */\n      0x00\n        /* \"#utility.yul\":1100:1153   */\n      tag_73\n        /* \"#utility.yul\":1145:1152   */\n      dup5\n        /* \"#utility.yul\":1136:1142   */\n      dup3\n        /* \"#utility.yul\":1125:1134   */\n      dup6\n        /* \"#utility.yul\":1121:1143   */\n      add\n        /* \"#utility.yul\":1100:1153   */\n      tag_55\n      jump\t// in\n    tag_73:\n        /* \"#utility.yul\":1090:1153   */\n      swap2\n      pop\n        /* \"#utility.yul\":1046:1163   */\n      pop\n        /* \"#utility.yul\":841:1170   */\n      swap3\n      swap2\n      pop\n      pop\n      jump\t// out\n        /* \"#utility.yul\":1176:1266   */\n    tag_56:\n        /* \"#utility.yul\":1210:1217   */\n      0x00\n        /* \"#utility.yul\":1253:1258   */\n      dup2\n        /* \"#utility.yul\":1246:1259   */\n      iszero\n        /* \"#utility.yul\":1239:1260   */\n      iszero\n        /* \"#utility.yul\":1228:1260   */\n      swap1\n      pop\n        /* \"#utility.yul\":1176:1266   */\n      swap2\n      swap1\n      pop\n      jump\t// out\n        /* \"#utility.yul\":1272:1381   */\n    tag_57:\n        /* \"#utility.yul\":1353:1374   */\n      tag_76\n        /* \"#utility.yul\":1368:1373   */\n      dup2\n        /* \"#utility.yul\":1353:1374   */\n      tag_56\n      jump\t// in\n    tag_76:\n        /* \"#utility.yul\":1348:1351   */\n      dup3\n        /* \"#utility.yul\":1341:1375   */\n      mstore\n        /* \"#utility.yul\":1272:1381   */\n      pop\n      pop\n      jump\t// out\n        /* \"#utility.yul\":1387:1597   */\n    tag_16:\n        /* \"#utility.yul\":1474:1478   */\n      0x00\n        /* \"#utility.yul\":1512:1514   */\n      0x20\n        /* \"#utility.yul\":1501:1510   */\n      dup3\n        /* \"#utility.yul\":1497:1515   */\n      add\n        /* \"#utility.yul\":1489:1515   */\n      swap1\n      pop\n        /* \"#utility.yul\":1525:1590   */\n      tag_78\n        /* \"#utility.yul\":1587:1588   */\n      0x00\n        /* \"#utility.yul\":1576:1585   */\n      dup4\n        /* \"#utility.yul\":1572:1589   */\n      add\n        /* \"#utility.yul\":1563:1569   */\n      dup5\n        /* \"#utility.yul\":1525:1590   */\n      tag_57\n      jump\t// in\n    tag_78:\n        /* \"#utility.yul\":1387:1597   */\n      swap3\n      swap2\n      pop\n      pop\n      jump\t// out\n\n    auxdata: 0xa2646970667358221220db025c6dbd09443629903ababffeca7cf93956899d71b2460748f05096151ea864736f6c63430008120033\n}\n",
				"bytecode": {
					"linkReferences": {},
					"object": "608060405234801561001057600080fd5b5061002d61002261003260201b60201c565b61003a60201b60201c565b6101da565b600033905090565b61005281600061009860201b6100f01790919060201c565b8073ffffffffffffffffffffffffffffffffffffffff167f2e0ded4123377a3c2bc9a26f1717655a129e2f20752924d42e730ec89c83dbd060405160405180910390a250565b600073ffffffffffffffffffffffffffffffffffffffff168173ffffffffffffffffffffffffffffffffffffffff16036100d157600080fd5b6100e1828261014960201b60201c565b156100eb57600080fd5b60018260000160008373ffffffffffffffffffffffffffffffffffffffff1673ffffffffffffffffffffffffffffffffffffffff16815260200190815260200160002060006101000a81548160ff0219169083151502179055505050565b60008073ffffffffffffffffffffffffffffffffffffffff168273ffffffffffffffffffffffffffffffffffffffff160361018357600080fd5b8260000160008373ffffffffffffffffffffffffffffffffffffffff1673ffffffffffffffffffffffffffffffffffffffff16815260200190815260200160002060009054906101000a900460ff16905092915050565b61048e806101e96000396000f3fe608060405234801561001057600080fd5b50600436106100415760003560e01c806380c3f96d1461004657806380fc0ce414610062578063b94290691461006c575b600080fd5b610060600480360381019061005b91906103f5565b61009c565b005b61006a6100c1565b005b610086600480360381019061008191906103f5565b6100d3565b604051610093919061043d565b60405180910390f35b6100ac6100a761019b565b6100d3565b6100b557600080fd5b6100be816101a3565b50565b6100d16100cc61019b565b6101fd565b565b60006100e982600061025790919063ffffffff16565b9050919050565b600073ffffffffffffffffffffffffffffffffffffffff168173ffffffffffffffffffffffffffffffffffffffff160361012957600080fd5b6101338282610257565b1561013d57600080fd5b60018260000160008373ffffffffffffffffffffffffffffffffffffffff1673ffffffffffffffffffffffffffffffffffffffff16815260200190815260200160002060006101000a81548160ff0219169083151502179055505050565b600033905090565b6101b78160006100f090919063ffffffff16565b8073ffffffffffffffffffffffffffffffffffffffff167f2e0ded4123377a3c2bc9a26f1717655a129e2f20752924d42e730ec89c83dbd060405160405180910390a250565b6102118160006102e890919063ffffffff16565b8073ffffffffffffffffffffffffffffffffffffffff167fa5e0f060af304ab17dd418c7927e3da3ae7868189bf387aee09ab179ccc572f260405160405180910390a250565b60008073ffffffffffffffffffffffffffffffffffffffff168273ffffffffffffffffffffffffffffffffffffffff160361029157600080fd5b8260000160008373ffffffffffffffffffffffffffffffffffffffff1673ffffffffffffffffffffffffffffffffffffffff16815260200190815260200160002060009054906101000a900460ff16905092915050565b600073ffffffffffffffffffffffffffffffffffffffff168173ffffffffffffffffffffffffffffffffffffffff160361032157600080fd5b61032b8282610257565b61033457600080fd5b60008260000160008373ffffffffffffffffffffffffffffffffffffffff1673ffffffffffffffffffffffffffffffffffffffff16815260200190815260200160002060006101000a81548160ff0219169083151502179055505050565b600080fd5b600073ffffffffffffffffffffffffffffffffffffffff82169050919050565b60006103c282610397565b9050919050565b6103d2816103b7565b81146103dd57600080fd5b50565b6000813590506103ef816103c9565b92915050565b60006020828403121561040b5761040a610392565b5b6000610419848285016103e0565b91505092915050565b60008115159050919050565b61043781610422565b82525050565b6000602082019050610452600083018461042e565b9291505056fea2646970667358221220db025c6dbd09443629903ababffeca7cf93956899d71b2460748f05096151ea864736f6c63430008120033",
					"opcodes": "PUSH1 0x80 PUSH1 0x40 MSTORE CALLVALUE DUP1 ISZERO PUSH2 0x10 JUMPI PUSH1 0x0 DUP1 REVERT JUMPDEST POP PUSH2 0x2D PUSH2 0x22 PUSH2 0x32 PUSH1 0x20 SHL PUSH1 0x20 SHR JUMP JUMPDEST PUSH2 0x3A PUSH1 0x20 SHL PUSH1 0x20 SHR JUMP JUMPDEST PUSH2 0x1DA JUMP JUMPDEST PUSH1 0x0 CALLER SWAP1 POP SWAP1 JUMP JUMPDEST PUSH2 0x52 DUP2 PUSH1 0x0 PUSH2 0x98 PUSH1 0x20 SHL PUSH2 0xF0 OR SWAP1 SWAP2 SWAP1 PUSH1 0x20 SHR JUMP JUMPDEST DUP1 PUSH20 0xFFFFFFFFFFFFFFFFFFFFFFFFFFFFFFFFFFFFFFFF AND PUSH32 0x2E0DED4123377A3C2BC9A26F1717655A129E2F20752924D42E730EC89C83DBD0 PUSH1 0x40 MLOAD PUSH1 0x40 MLOAD DUP1 SWAP2 SUB SWAP1 LOG2 POP JUMP JUMPDEST PUSH1 0x0 PUSH20 0xFFFFFFFFFFFFFFFFFFFFFFFFFFFFFFFFFFFFFFFF AND DUP2 PUSH20 0xFFFFFFFFFFFFFFFFFFFFFFFFFFFFFFFFFFFFFFFF AND SUB PUSH2 0xD1 JUMPI PUSH1 0x0 DUP1 REVERT JUMPDEST PUSH2 0xE1 DUP3 DUP3 PUSH2 0x149 PUSH1 0x20 SHL PUSH1 0x20 SHR JUMP JUMPDEST ISZERO PUSH2 0xEB JUMPI PUSH1 0x0 DUP1 REVERT JUMPDEST PUSH1 0x1 DUP3 PUSH1 0x0 ADD PUSH1 0x0 DUP4 PUSH20 0xFFFFFFFFFFFFFFFFFFFFFFFFFFFFFFFFFFFFFFFF AND PUSH20 0xFFFFFFFFFFFFFFFFFFFFFFFFFFFFFFFFFFFFFFFF AND DUP2 MSTORE PUSH1 0x20 ADD SWAP1 DUP2 MSTORE PUSH1 0x20 ADD PUSH1 0x0 KECCAK256 PUSH1 0x0 PUSH2 0x100 EXP DUP2 SLOAD DUP2 PUSH1 0xFF MUL NOT AND SWAP1 DUP4 ISZERO ISZERO MUL OR SWAP1 SSTORE POP POP POP JUMP JUMPDEST PUSH1 0x0 DUP1 PUSH20 0xFFFFFFFFFFFFFFFFFFFFFFFFFFFFFFFFFFFFFFFF AND DUP3 PUSH20 0xFFFFFFFFFFFFFFFFFFFFFFFFFFFFFFFFFFFFFFFF AND SUB PUSH2 0x183 JUMPI PUSH1 0x0 DUP1 REVERT JUMPDEST DUP3 PUSH1 0x0 ADD PUSH1 0x0 DUP4 PUSH20 0xFFFFFFFFFFFFFFFFFFFFFFFFFFFFFFFFFFFFFFFF AND PUSH20 0xFFFFFFFFFFFFFFFFFFFFFFFFFFFFFFFFFFFFFFFF AND DUP2 MSTORE PUSH1 0x20 ADD SWAP1 DUP2 MSTORE PUSH1 0x20 ADD PUSH1 0x0 KECCAK256 PUSH1 0x0 SWAP1 SLOAD SWAP1 PUSH2 0x100 EXP SWAP1 DIV PUSH1 0xFF AND SWAP1 POP SWAP3 SWAP2 POP POP JUMP JUMPDEST PUSH2 0x48E DUP1 PUSH2 0x1E9 PUSH1 0x0 CODECOPY PUSH1 0x0 RETURN INVALID PUSH1 0x80 PUSH1 0x40 MSTORE CALLVALUE DUP1 ISZERO PUSH2 0x10 JUMPI PUSH1 0x0 DUP1 REVERT JUMPDEST POP PUSH1 0x4 CALLDATASIZE LT PUSH2 0x41 JUMPI PUSH1 0x0 CALLDATALOAD PUSH1 0xE0 SHR DUP1 PUSH4 0x80C3F96D EQ PUSH2 0x46 JUMPI DUP1 PUSH4 0x80FC0CE4 EQ PUSH2 0x62 JUMPI DUP1 PUSH4 0xB9429069 EQ PUSH2 0x6C JUMPI JUMPDEST PUSH1 0x0 DUP1 REVERT JUMPDEST PUSH2 0x60 PUSH1 0x4 DUP1 CALLDATASIZE SUB DUP2 ADD SWAP1 PUSH2 0x5B SWAP2 SWAP1 PUSH2 0x3F5 JUMP JUMPDEST PUSH2 0x9C JUMP JUMPDEST STOP JUMPDEST PUSH2 0x6A PUSH2 0xC1 JUMP JUMPDEST STOP JUMPDEST PUSH2 0x86 PUSH1 0x4 DUP1 CALLDATASIZE SUB DUP2 ADD SWAP1 PUSH2 0x81 SWAP2 SWAP1 PUSH2 0x3F5 JUMP JUMPDEST PUSH2 0xD3 JUMP JUMPDEST PUSH1 0x40 MLOAD PUSH2 0x93 SWAP2 SWAP1 PUSH2 0x43D JUMP JUMPDEST PUSH1 0x40 MLOAD DUP1 SWAP2 SUB SWAP1 RETURN JUMPDEST PUSH2 0xAC PUSH2 0xA7 PUSH2 0x19B JUMP JUMPDEST PUSH2 0xD3 JUMP JUMPDEST PUSH2 0xB5 JUMPI PUSH1 0x0 DUP1 REVERT JUMPDEST PUSH2 0xBE DUP2 PUSH2 0x1A3 JUMP JUMPDEST POP JUMP JUMPDEST PUSH2 0xD1 PUSH2 0xCC PUSH2 0x19B JUMP JUMPDEST PUSH2 0x1FD JUMP JUMPDEST JUMP JUMPDEST PUSH1 0x0 PUSH2 0xE9 DUP3 PUSH1 0x0 PUSH2 0x257 SWAP1 SWAP2 SWAP1 PUSH4 0xFFFFFFFF AND JUMP JUMPDEST SWAP1 POP SWAP2 SWAP1 POP JUMP JUMPDEST PUSH1 0x0 PUSH20 0xFFFFFFFFFFFFFFFFFFFFFFFFFFFFFFFFFFFFFFFF AND DUP2 PUSH20 0xFFFFFFFFFFFFFFFFFFFFFFFFFFFFFFFFFFFFFFFF AND SUB PUSH2 0x129 JUMPI PUSH1 0x0 DUP1 REVERT JUMPDEST PUSH2 0x133 DUP3 DUP3 PUSH2 0x257 JUMP JUMPDEST ISZERO PUSH2 0x13D JUMPI PUSH1 0x0 DUP1 REVERT JUMPDEST PUSH1 0x1 DUP3 PUSH1 0x0 ADD PUSH1 0x0 DUP4 PUSH20 0xFFFFFFFFFFFFFFFFFFFFFFFFFFFFFFFFFFFFFFFF AND PUSH20 0xFFFFFFFFFFFFFFFFFFFFFFFFFFFFFFFFFFFFFFFF AND DUP2 MSTORE PUSH1 0x20 ADD SWAP1 DUP2 MSTORE PUSH1 0x20 ADD PUSH1 0x0 KECCAK256 PUSH1 0x0 PUSH2 0x100 EXP DUP2 SLOAD DUP2 PUSH1 0xFF MUL NOT AND SWAP1 DUP4 ISZERO ISZERO MUL OR SWAP1 SSTORE POP POP POP JUMP JUMPDEST PUSH1 0x0 CALLER SWAP1 POP SWAP1 JUMP JUMPDEST PUSH2 0x1B7 DUP2 PUSH1 0x0 PUSH2 0xF0 SWAP1 SWAP2 SWAP1 PUSH4 0xFFFFFFFF AND JUMP JUMPDEST DUP1 PUSH20 0xFFFFFFFFFFFFFFFFFFFFFFFFFFFFFFFFFFFFFFFF AND PUSH32 0x2E0DED4123377A3C2BC9A26F1717655A129E2F20752924D42E730EC89C83DBD0 PUSH1 0x40 MLOAD PUSH1 0x40 MLOAD DUP1 SWAP2 SUB SWAP1 LOG2 POP JUMP JUMPDEST PUSH2 0x211 DUP2 PUSH1 0x0 PUSH2 0x2E8 SWAP1 SWAP2 SWAP1 PUSH4 0xFFFFFFFF AND JUMP JUMPDEST DUP1 PUSH20 0xFFFFFFFFFFFFFFFFFFFFFFFFFFFFFFFFFFFFFFFF AND PUSH32 0xA5E0F060AF304AB17DD418C7927E3DA3AE7868189BF387AEE09AB179CCC572F2 PUSH1 0x40 MLOAD PUSH1 0x40 MLOAD DUP1 SWAP2 SUB SWAP1 LOG2 POP JUMP JUMPDEST PUSH1 0x0 DUP1 PUSH20 0xFFFFFFFFFFFFFFFFFFFFFFFFFFFFFFFFFFFFFFFF AND DUP3 PUSH20 0xFFFFFFFFFFFFFFFFFFFFFFFFFFFFFFFFFFFFFFFF AND SUB PUSH2 0x291 JUMPI PUSH1 0x0 DUP1 REVERT JUMPDEST DUP3 PUSH1 0x0 ADD PUSH1 0x0 DUP4 PUSH20 0xFFFFFFFFFFFFFFFFFFFFFFFFFFFFFFFFFFFFFFFF AND PUSH20 0xFFFFFFFFFFFFFFFFFFFFFFFFFFFFFFFFFFFFFFFF AND DUP2 MSTORE PUSH1 0x20 ADD SWAP1 DUP2 MSTORE PUSH1 0x20 ADD PUSH1 0x0 KECCAK256 PUSH1 0x0 SWAP1 SLOAD SWAP1 PUSH2 0x100 EXP SWAP1 DIV PUSH1 0xFF AND SWAP1 POP SWAP3 SWAP2 POP POP JUMP JUMPDEST PUSH1 0x0 PUSH20 0xFFFFFFFFFFFFFFFFFFFFFFFFFFFFFFFFFFFFFFFF AND DUP2 PUSH20 0xFFFFFFFFFFFFFFFFFFFFFFFFFFFFFFFFFFFFFFFF AND SUB PUSH2 0x321 JUMPI PUSH1 0x0 DUP1 REVERT JUMPDEST PUSH2 0x32B DUP3 DUP3 PUSH2 0x257 JUMP JUMPDEST PUSH2 0x334 JUMPI PUSH1 0x0 DUP1 REVERT JUMPDEST PUSH1 0x0 DUP3 PUSH1 0x0 ADD PUSH1 0x0 DUP4 PUSH20 0xFFFFFFFFFFFFFFFFFFFFFFFFFFFFFFFFFFFFFFFF AND PUSH20 0xFFFFFFFFFFFFFFFFFFFFFFFFFFFFFFFFFFFFFFFF AND DUP2 MSTORE PUSH1 0x20 ADD SWAP1 DUP2 MSTORE PUSH1 0x20 ADD PUSH1 0x0 KECCAK256 PUSH1 0x0 PUSH2 0x100 EXP DUP2 SLOAD DUP2 PUSH1 0xFF MUL NOT AND SWAP1 DUP4 ISZERO ISZERO MUL OR SWAP1 SSTORE POP POP POP JUMP JUMPDEST PUSH1 0x0 DUP1 REVERT JUMPDEST PUSH1 0x0 PUSH20 0xFFFFFFFFFFFFFFFFFFFFFFFFFFFFFFFFFFFFFFFF DUP3 AND SWAP1 POP SWAP2 SWAP1 POP JUMP JUMPDEST PUSH1 0x0 PUSH2 0x3C2 DUP3 PUSH2 0x397 JUMP JUMPDEST SWAP1 POP SWAP2 SWAP1 POP JUMP JUMPDEST PUSH2 0x3D2 DUP2 PUSH2 0x3B7 JUMP JUMPDEST DUP2 EQ PUSH2 0x3DD JUMPI PUSH1 0x0 DUP1 REVERT JUMPDEST POP JUMP JUMPDEST PUSH1 0x0 DUP2 CALLDATALOAD SWAP1 POP PUSH2 0x3EF DUP2 PUSH2 0x3C9 JUMP JUMPDEST SWAP3 SWAP2 POP POP JUMP JUMPDEST PUSH1 0x0 PUSH1 0x20 DUP3 DUP5 SUB SLT ISZERO PUSH2 0x40B JUMPI PUSH2 0x40A PUSH2 0x392 JUMP JUMPDEST JUMPDEST PUSH1 0x0 PUSH2 0x419 DUP5 DUP3 DUP6 ADD PUSH2 0x3E0 JUMP JUMPDEST SWAP2 POP POP SWAP3 SWAP2 POP POP JUMP JUMPDEST PUSH1 0x0 DUP2 ISZERO ISZERO SWAP1 POP SWAP2 SWAP1 POP JUMP JUMPDEST PUSH2 0x437 DUP2 PUSH2 0x422 JUMP JUMPDEST DUP3 MSTORE POP POP JUMP JUMPDEST PUSH1 0x0 PUSH1 0x20 DUP3 ADD SWAP1 POP PUSH2 0x452 PUSH1 0x0 DUP4 ADD DUP5 PUSH2 0x42E JUMP JUMPDEST SWAP3 SWAP2 POP POP JUMP INVALID LOG2 PUSH5 0x6970667358 0x22 SLT KECCAK256 0xDB MUL 0x5C PUSH14 0xBD09443629903ABABFFECA7CF939 JUMP DUP10 SWAP14 PUSH18 0xB2460748F05096151EA864736F6C63430008 SLT STOP CALLER "
				},
				"gasEstimates": {
					"creation": {
						"codeDepositCost": "233200",
						"executionCost": "infinite",
						"totalCost": "infinite"
					},
					"external": {
						"addFarmer(address)": "infinite",
						"isFarmer(address)": "infinite",
						"renounceFarmer()": "infinite"
					},
					"internal": {
						"_addFarmer(address)": "infinite",
						"_removeFarmer(address)": "infinite"
					}
				},
				"methodIdentifiers": {
					"addFarmer(address)": "80c3f96d",
					"isFarmer(address)": "b9429069",
					"renounceFarmer()": "80fc0ce4"
				}
			},
			"storageLayout": {
				"storage": [
					{
						"astId": 20,
						"contract": "access/FarmerRole.sol:FarmerRole",
						"label": "farmers",
						"offset": 0,
						"slot": "0",
						"type": "t_struct(Role)115_storage"
					}
				],
				"types": {
					"t_address": {
						"encoding": "inplace",
						"label": "address",
						"numberOfBytes": "20"
					},
					"t_bool": {
						"encoding": "inplace",
						"label": "bool",
						"numberOfBytes": "1"
					},
					"t_mapping(t_address,t_bool)": {
						"encoding": "mapping",
						"key": "t_address",
						"label": "mapping(address => bool)",
						"numberOfBytes": "32",
						"value": "t_bool"
					},
					"t_struct(Role)115_storage": {
						"encoding": "inplace",
						"label": "struct Roles.Role",
						"members": [
							{
								"astId": 114,
								"contract": "access/FarmerRole.sol:FarmerRole",
								"label": "bearer",
								"offset": 0,
								"slot": "0",
								"type": "t_mapping(t_address,t_bool)"
							}
						],
						"numberOfBytes": "32"
					}
				}
			},
			"userdoc": {
				"kind": "user",
				"methods": {},
				"version": 1
			}
		}
	}
}