{
	"access/ManufacturerRole.sol": {
		"ManufacturerRole": {
			"abi": [
				{
					"inputs": [],
					"stateMutability": "nonpayable",
					"type": "constructor"
				},
				{
					"anonymous": false,
					"inputs": [
						{
							"indexed": true,
							"internalType": "address",
							"name": "account",
							"type": "address"
						}
					],
					"name": "ManufacturerAdded",
					"type": "event"
				},
				{
					"anonymous": false,
					"inputs": [
						{
							"indexed": true,
							"internalType": "address",
							"name": "account",
							"type": "address"
						}
					],
					"name": "ManufacturerRemoved",
					"type": "event"
				},
				{
					"inputs": [
						{
							"internalType": "address",
							"name": "account",
							"type": "address"
						}
					],
					"name": "addManufacturer",
					"outputs": [],
					"stateMutability": "nonpayable",
					"type": "function"
				},
				{
					"inputs": [
						{
							"internalType": "address",
							"name": "account",
							"type": "address"
						}
					],
					"name": "isManufacturer",
					"outputs": [
						{
							"internalType": "bool",
							"name": "",
							"type": "bool"
						}
					],
					"stateMutability": "view",
					"type": "function"
				},
				{
					"inputs": [],
					"name": "renounceManufacturer",
					"outputs": [],
					"stateMutability": "nonpayable",
					"type": "function"
				}
			],
			"devdoc": {
				"kind": "dev",
				"methods": {},
				"version": 1
			},
			"evm": {
				"assembly": "    /* \"access/ManufacturerRole.sol\":199:1995  contract ManufacturerRole is Context {... */\n  mstore(0x40, 0x80)\n    /* \"access/ManufacturerRole.sol\":677:747  constructor() public {... */\n  callvalue\n  dup1\n  iszero\n  tag_1\n  jumpi\n  0x00\n  dup1\n  revert\ntag_1:\n  pop\n    /* \"access/ManufacturerRole.sol\":709:739  _addManufacturer(_msgSender()) */\n  tag_4\n    /* \"access/ManufacturerRole.sol\":726:738  _msgSender() */\n  tag_5\n    /* \"access/ManufacturerRole.sol\":726:736  _msgSender */\n  shl(0x20, tag_6)\n    /* \"access/ManufacturerRole.sol\":726:738  _msgSender() */\n  0x20\n  shr\n  jump\t// in\ntag_5:\n    /* \"access/ManufacturerRole.sol\":709:725  _addManufacturer */\n  shl(0x20, tag_7)\n    /* \"access/ManufacturerRole.sol\":709:739  _addManufacturer(_msgSender()) */\n  0x20\n  shr\n  jump\t// in\ntag_4:\n    /* \"access/ManufacturerRole.sol\":199:1995  contract ManufacturerRole is Context {... */\n  jump(tag_8)\n    /* \"utils/Context.sol\":602:700  function _msgSender() internal view virtual returns (address) {... */\ntag_6:\n    /* \"utils/Context.sol\":655:662  address */\n  0x00\n    /* \"utils/Context.sol\":682:692  msg.sender */\n  caller\n    /* \"utils/Context.sol\":675:692  return msg.sender */\n  swap1\n  pop\n    /* \"utils/Context.sol\":602:700  function _msgSender() internal view virtual returns (address) {... */\n  swap1\n  jump\t// out\n    /* \"access/ManufacturerRole.sol\":1588:1727  function _addManufacturer(address account) internal {... */\ntag_7:\n    /* \"access/ManufacturerRole.sol\":1651:1677  Manufacturers.add(account) */\n  tag_11\n    /* \"access/ManufacturerRole.sol\":1669:1676  account */\n  dup2\n    /* \"access/ManufacturerRole.sol\":1651:1664  Manufacturers */\n  0x00\n    /* \"access/ManufacturerRole.sol\":1651:1668  Manufacturers.add */\n  or(tag_0_17, shl(0x20, tag_12))\n  swap1\n    /* \"access/ManufacturerRole.sol\":1651:1677  Manufacturers.add(account) */\n  swap2\n  swap1\n  0x20\n  shr\n  jump\t// in\ntag_11:\n    /* \"access/ManufacturerRole.sol\":1711:1718  account */\n  dup1\n    /* \"access/ManufacturerRole.sol\":1693:1719  ManufacturerAdded(account) */\n  0xffffffffffffffffffffffffffffffffffffffff\n  and\n  0x561138658ca49a8540dc70dcfe64c9026c1c5b9344642242dd6562970f9c1278\n  mload(0x40)\n  mload(0x40)\n  dup1\n  swap2\n  sub\n  swap1\n  log2\n    /* \"access/ManufacturerRole.sol\":1588:1727  function _addManufacturer(address account) internal {... */\n  pop\n  jump\t// out\n    /* \"access/Roles.sol\":305:491  function add(Role storage role, address account) internal {... */\ntag_12:\n    /* \"access/Roles.sol\":401:402  0 */\n  0x00\n    /* \"access/Roles.sol\":382:403  account != address(0) */\n  0xffffffffffffffffffffffffffffffffffffffff\n  and\n    /* \"access/Roles.sol\":382:389  account */\n  dup2\n    /* \"access/Roles.sol\":382:403  account != address(0) */\n  0xffffffffffffffffffffffffffffffffffffffff\n  and\n  sub\n    /* \"access/Roles.sol\":374:404  require(account != address(0)) */\n  tag_14\n  jumpi\n  0x00\n  dup1\n  revert\ntag_14:\n    /* \"access/Roles.sol\":424:442  has(role, account) */\n  tag_15\n    /* \"access/Roles.sol\":428:432  role */\n  dup3\n    /* \"access/Roles.sol\":434:441  account */\n  dup3\n    /* \"access/Roles.sol\":424:427  has */\n  shl(0x20, tag_16)\n    /* \"access/Roles.sol\":424:442  has(role, account) */\n  0x20\n  shr\n  jump\t// in\ntag_15:\n    /* \"access/Roles.sol\":423:442  !has(role, account) */\n  iszero\n    /* \"access/Roles.sol\":415:443  require(!has(role, account)) */\n  tag_17\n  jumpi\n  0x00\n  dup1\n  revert\ntag_17:\n    /* \"access/Roles.sol\":479:483  true */\n  0x01\n    /* \"access/Roles.sol\":456:460  role */\n  dup3\n    /* \"access/Roles.sol\":456:467  role.bearer */\n  0x00\n  add\n    /* \"access/Roles.sol\":456:476  role.bearer[account] */\n  0x00\n    /* \"access/Roles.sol\":468:475  account */\n  dup4\n    /* \"access/Roles.sol\":456:476  role.bearer[account] */\n  0xffffffffffffffffffffffffffffffffffffffff\n  and\n  0xffffffffffffffffffffffffffffffffffffffff\n  and\n  dup2\n  mstore\n  0x20\n  add\n  swap1\n  dup2\n  mstore\n  0x20\n  add\n  0x00\n  keccak256\n  0x00\n    /* \"access/Roles.sol\":456:483  role.bearer[account] = true */\n  0x0100\n  exp\n  dup2\n  sload\n  dup2\n  0xff\n  mul\n  not\n  and\n  swap1\n  dup4\n  iszero\n  iszero\n  mul\n  or\n  swap1\n  sstore\n  pop\n    /* \"access/Roles.sol\":305:491  function add(Role storage role, address account) internal {... */\n  pop\n  pop\n  jump\t// out\n    /* \"access/Roles.sol\":853:1050  function has(Role storage role, address account)... */\ntag_16:\n    /* \"access/Roles.sol\":952:956  bool */\n  0x00\n    /* \"access/Roles.sol\":1001:1002  0 */\n  dup1\n    /* \"access/Roles.sol\":982:1003  account != address(0) */\n  0xffffffffffffffffffffffffffffffffffffffff\n  and\n    /* \"access/Roles.sol\":982:989  account */\n  dup3\n    /* \"access/Roles.sol\":982:1003  account != address(0) */\n  0xffffffffffffffffffffffffffffffffffffffff\n  and\n  sub\n    /* \"access/Roles.sol\":974:1004  require(account != address(0)) */\n  tag_19\n  jumpi\n  0x00\n  dup1\n  revert\ntag_19:\n    /* \"access/Roles.sol\":1022:1026  role */\n  dup3\n    /* \"access/Roles.sol\":1022:1033  role.bearer */\n  0x00\n  add\n    /* \"access/Roles.sol\":1022:1042  role.bearer[account] */\n  0x00\n    /* \"access/Roles.sol\":1034:1041  account */\n  dup4\n    /* \"access/Roles.sol\":1022:1042  role.bearer[account] */\n  0xffffffffffffffffffffffffffffffffffffffff\n  and\n  0xffffffffffffffffffffffffffffffffffffffff\n  and\n  dup2\n  mstore\n  0x20\n  add\n  swap1\n  dup2\n  mstore\n  0x20\n  add\n  0x00\n  keccak256\n  0x00\n  swap1\n  sload\n  swap1\n  0x0100\n  exp\n  swap1\n  div\n  0xff\n  and\n    /* \"access/Roles.sol\":1015:1042  return role.bearer[account] */\n  swap1\n  pop\n    /* \"access/Roles.sol\":853:1050  function has(Role storage role, address account)... */\n  swap3\n  swap2\n  pop\n  pop\n  jump\t// out\n    /* \"access/ManufacturerRole.sol\":199:1995  contract ManufacturerRole is Context {... */\ntag_8:\n  dataSize(sub_0)\n  dup1\n  dataOffset(sub_0)\n  0x00\n  codecopy\n  0x00\n  return\nstop\n\nsub_0: assembly {\n        /* \"access/ManufacturerRole.sol\":199:1995  contract ManufacturerRole is Context {... */\n      mstore(0x40, 0x80)\n      callvalue\n      dup1\n      iszero\n      tag_1\n      jumpi\n      0x00\n      dup1\n      revert\n    tag_1:\n      pop\n      jumpi(tag_2, lt(calldatasize, 0x04))\n      shr(0xe0, calldataload(0x00))\n      dup1\n      0x17d4a491\n      eq\n      tag_3\n      jumpi\n      dup1\n      0x5f8a5afa\n      eq\n      tag_4\n      jumpi\n      dup1\n      0xde07f34e\n      eq\n      tag_5\n      jumpi\n    tag_2:\n      0x00\n      dup1\n      revert\n        /* \"access/ManufacturerRole.sol\":1007:1127  function isManufacturer(address account) public view returns (bool) {... */\n    tag_3:\n      tag_6\n      0x04\n      dup1\n      calldatasize\n      sub\n      dup2\n      add\n      swap1\n      tag_7\n      swap2\n      swap1\n      tag_8\n      jump\t// in\n    tag_7:\n      tag_9\n      jump\t// in\n    tag_6:\n      mload(0x40)\n      tag_10\n      swap2\n      swap1\n      tag_11\n      jump\t// in\n    tag_10:\n      mload(0x40)\n      dup1\n      swap2\n      sub\n      swap1\n      return\n        /* \"access/ManufacturerRole.sol\":1199:1309  function addManufacturer(address account) public onlyManufacturer {... */\n    tag_4:\n      tag_12\n      0x04\n      dup1\n      calldatasize\n      sub\n      dup2\n      add\n      swap1\n      tag_13\n      swap2\n      swap1\n      tag_8\n      jump\t// in\n    tag_13:\n      tag_14\n      jump\t// in\n    tag_12:\n      stop\n        /* \"access/ManufacturerRole.sol\":1388:1479  function renounceManufacturer() public {... */\n    tag_5:\n      tag_15\n      tag_16\n      jump\t// in\n    tag_15:\n      stop\n        /* \"access/ManufacturerRole.sol\":1007:1127  function isManufacturer(address account) public view returns (bool) {... */\n    tag_9:\n        /* \"access/ManufacturerRole.sol\":1069:1073  bool */\n      0x00\n        /* \"access/ManufacturerRole.sol\":1093:1119  Manufacturers.has(account) */\n      tag_19\n        /* \"access/ManufacturerRole.sol\":1111:1118  account */\n      dup3\n        /* \"access/ManufacturerRole.sol\":1093:1106  Manufacturers */\n      0x00\n        /* \"access/ManufacturerRole.sol\":1093:1110  Manufacturers.has */\n      tag_20\n      swap1\n        /* \"access/ManufacturerRole.sol\":1093:1119  Manufacturers.has(account) */\n      swap2\n      swap1\n      0xffffffff\n      and\n      jump\t// in\n    tag_19:\n        /* \"access/ManufacturerRole.sol\":1086:1119  return Manufacturers.has(account) */\n      swap1\n      pop\n        /* \"access/ManufacturerRole.sol\":1007:1127  function isManufacturer(address account) public view returns (bool) {... */\n      swap2\n      swap1\n      pop\n      jump\t// out\n        /* \"access/ManufacturerRole.sol\":1199:1309  function addManufacturer(address account) public onlyManufacturer {... */\n    tag_14:\n        /* \"access/ManufacturerRole.sol\":888:916  isManufacturer(_msgSender()) */\n      tag_22\n        /* \"access/ManufacturerRole.sol\":903:915  _msgSender() */\n      tag_23\n        /* \"access/ManufacturerRole.sol\":903:913  _msgSender */\n      tag_24\n        /* \"access/ManufacturerRole.sol\":903:915  _msgSender() */\n      jump\t// in\n    tag_23:\n        /* \"access/ManufacturerRole.sol\":888:902  isManufacturer */\n      tag_9\n        /* \"access/ManufacturerRole.sol\":888:916  isManufacturer(_msgSender()) */\n      jump\t// in\n    tag_22:\n        /* \"access/ManufacturerRole.sol\":880:917  require(isManufacturer(_msgSender())) */\n      tag_25\n      jumpi\n      0x00\n      dup1\n      revert\n    tag_25:\n        /* \"access/ManufacturerRole.sol\":1276:1301  _addManufacturer(account) */\n      tag_27\n        /* \"access/ManufacturerRole.sol\":1293:1300  account */\n      dup2\n        /* \"access/ManufacturerRole.sol\":1276:1292  _addManufacturer */\n      tag_28\n        /* \"access/ManufacturerRole.sol\":1276:1301  _addManufacturer(account) */\n      jump\t// in\n    tag_27:\n        /* \"access/ManufacturerRole.sol\":1199:1309  function addManufacturer(address account) public onlyManufacturer {... */\n      pop\n      jump\t// out\n        /* \"access/ManufacturerRole.sol\":1388:1479  function renounceManufacturer() public {... */\n    tag_16:\n        /* \"access/ManufacturerRole.sol\":1438:1471  _removeManufacturer(_msgSender()) */\n      tag_30\n        /* \"access/ManufacturerRole.sol\":1458:1470  _msgSender() */\n      tag_31\n        /* \"access/ManufacturerRole.sol\":1458:1468  _msgSender */\n      tag_24\n        /* \"access/ManufacturerRole.sol\":1458:1470  _msgSender() */\n      jump\t// in\n    tag_31:\n        /* \"access/ManufacturerRole.sol\":1438:1457  _removeManufacturer */\n      tag_32\n        /* \"access/ManufacturerRole.sol\":1438:1471  _removeManufacturer(_msgSender()) */\n      jump\t// in\n    tag_30:\n        /* \"access/ManufacturerRole.sol\":1388:1479  function renounceManufacturer() public {... */\n      jump\t// out\n        /* \"access/Roles.sol\":305:491  function add(Role storage role, address account) internal {... */\n    tag_17:\n        /* \"access/Roles.sol\":401:402  0 */\n      0x00\n        /* \"access/Roles.sol\":382:403  account != address(0) */\n      0xffffffffffffffffffffffffffffffffffffffff\n      and\n        /* \"access/Roles.sol\":382:389  account */\n      dup2\n        /* \"access/Roles.sol\":382:403  account != address(0) */\n      0xffffffffffffffffffffffffffffffffffffffff\n      and\n      sub\n        /* \"access/Roles.sol\":374:404  require(account != address(0)) */\n      tag_34\n      jumpi\n      0x00\n      dup1\n      revert\n    tag_34:\n        /* \"access/Roles.sol\":424:442  has(role, account) */\n      tag_35\n        /* \"access/Roles.sol\":428:432  role */\n      dup3\n        /* \"access/Roles.sol\":434:441  account */\n      dup3\n        /* \"access/Roles.sol\":424:427  has */\n      tag_20\n        /* \"access/Roles.sol\":424:442  has(role, account) */\n      jump\t// in\n    tag_35:\n        /* \"access/Roles.sol\":423:442  !has(role, account) */\n      iszero\n        /* \"access/Roles.sol\":415:443  require(!has(role, account)) */\n      tag_36\n      jumpi\n      0x00\n      dup1\n      revert\n    tag_36:\n        /* \"access/Roles.sol\":479:483  true */\n      0x01\n        /* \"access/Roles.sol\":456:460  role */\n      dup3\n        /* \"access/Roles.sol\":456:467  role.bearer */\n      0x00\n      add\n        /* \"access/Roles.sol\":456:476  role.bearer[account] */\n      0x00\n        /* \"access/Roles.sol\":468:475  account */\n      dup4\n        /* \"access/Roles.sol\":456:476  role.bearer[account] */\n      0xffffffffffffffffffffffffffffffffffffffff\n      and\n      0xffffffffffffffffffffffffffffffffffffffff\n      and\n      dup2\n      mstore\n      0x20\n      add\n      swap1\n      dup2\n      mstore\n      0x20\n      add\n      0x00\n      keccak256\n      0x00\n        /* \"access/Roles.sol\":456:483  role.bearer[account] = true */\n      0x0100\n      exp\n      dup2\n      sload\n      dup2\n      0xff\n      mul\n      not\n      and\n      swap1\n      dup4\n      iszero\n      iszero\n      mul\n      or\n      swap1\n      sstore\n      pop\n        /* \"access/Roles.sol\":305:491  function add(Role storage role, address account) internal {... */\n      pop\n      pop\n      jump\t// out\n        /* \"access/Roles.sol\":853:1050  function has(Role storage role, address account)... */\n    tag_20:\n        /* \"access/Roles.sol\":952:956  bool */\n      0x00\n        /* \"access/Roles.sol\":1001:1002  0 */\n      dup1\n        /* \"access/Roles.sol\":982:1003  account != address(0) */\n      0xffffffffffffffffffffffffffffffffffffffff\n      and\n        /* \"access/Roles.sol\":982:989  account */\n      dup3\n        /* \"access/Roles.sol\":982:1003  account != address(0) */\n      0xffffffffffffffffffffffffffffffffffffffff\n      and\n      sub\n        /* \"access/Roles.sol\":974:1004  require(account != address(0)) */\n      tag_38\n      jumpi\n      0x00\n      dup1\n      revert\n    tag_38:\n        /* \"access/Roles.sol\":1022:1026  role */\n      dup3\n        /* \"access/Roles.sol\":1022:1033  role.bearer */\n      0x00\n      add\n        /* \"access/Roles.sol\":1022:1042  role.bearer[account] */\n      0x00\n        /* \"access/Roles.sol\":1034:1041  account */\n      dup4\n        /* \"access/Roles.sol\":1022:1042  role.bearer[account] */\n      0xffffffffffffffffffffffffffffffffffffffff\n      and\n      0xffffffffffffffffffffffffffffffffffffffff\n      and\n      dup2\n      mstore\n      0x20\n      add\n      swap1\n      dup2\n      mstore\n      0x20\n      add\n      0x00\n      keccak256\n      0x00\n      swap1\n      sload\n      swap1\n      0x0100\n      exp\n      swap1\n      div\n      0xff\n      and\n        /* \"access/Roles.sol\":1015:1042  return role.bearer[account] */\n      swap1\n      pop\n        /* \"access/Roles.sol\":853:1050  function has(Role storage role, address account)... */\n      swap3\n      swap2\n      pop\n      pop\n      jump\t// out\n        /* \"utils/Context.sol\":602:700  function _msgSender() internal view virtual returns (address) {... */\n    tag_24:\n        /* \"utils/Context.sol\":655:662  address */\n      0x00\n        /* \"utils/Context.sol\":682:692  msg.sender */\n      caller\n        /* \"utils/Context.sol\":675:692  return msg.sender */\n      swap1\n      pop\n        /* \"utils/Context.sol\":602:700  function _msgSender() internal view virtual returns (address) {... */\n      swap1\n      jump\t// out\n        /* \"access/ManufacturerRole.sol\":1588:1727  function _addManufacturer(address account) internal {... */\n    tag_28:\n        /* \"access/ManufacturerRole.sol\":1651:1677  Manufacturers.add(account) */\n      tag_41\n        /* \"access/ManufacturerRole.sol\":1669:1676  account */\n      dup2\n        /* \"access/ManufacturerRole.sol\":1651:1664  Manufacturers */\n      0x00\n        /* \"access/ManufacturerRole.sol\":1651:1668  Manufacturers.add */\n      tag_17\n      swap1\n        /* \"access/ManufacturerRole.sol\":1651:1677  Manufacturers.add(account) */\n      swap2\n      swap1\n      0xffffffff\n      and\n      jump\t// in\n    tag_41:\n        /* \"access/ManufacturerRole.sol\":1711:1718  account */\n      dup1\n        /* \"access/ManufacturerRole.sol\":1693:1719  ManufacturerAdded(account) */\n      0xffffffffffffffffffffffffffffffffffffffff\n      and\n      0x561138658ca49a8540dc70dcfe64c9026c1c5b9344642242dd6562970f9c1278\n      mload(0x40)\n      mload(0x40)\n      dup1\n      swap2\n      sub\n      swap1\n      log2\n        /* \"access/ManufacturerRole.sol\":1588:1727  function _addManufacturer(address account) internal {... */\n      pop\n      jump\t// out\n        /* \"access/ManufacturerRole.sol\":1845:1992  function _removeManufacturer(address account) internal {... */\n    tag_32:\n        /* \"access/ManufacturerRole.sol\":1911:1940  Manufacturers.remove(account) */\n      tag_43\n        /* \"access/ManufacturerRole.sol\":1932:1939  account */\n      dup2\n        /* \"access/ManufacturerRole.sol\":1911:1924  Manufacturers */\n      0x00\n        /* \"access/ManufacturerRole.sol\":1911:1931  Manufacturers.remove */\n      tag_44\n      swap1\n        /* \"access/ManufacturerRole.sol\":1911:1940  Manufacturers.remove(account) */\n      swap2\n      swap1\n      0xffffffff\n      and\n      jump\t// in\n    tag_43:\n        /* \"access/ManufacturerRole.sol\":1976:1983  account */\n      dup1\n        /* \"access/ManufacturerRole.sol\":1956:1984  ManufacturerRemoved(account) */\n      0xffffffffffffffffffffffffffffffffffffffff\n      and\n      0x2fed5abf6a80d6dfe30b4895481b2fc5d7dce5f8f7b931832f4a2947d5040c7f\n      mload(0x40)\n      mload(0x40)\n      dup1\n      swap2\n      sub\n      swap1\n      log2\n        /* \"access/ManufacturerRole.sol\":1845:1992  function _removeManufacturer(address account) internal {... */\n      pop\n      jump\t// out\n        /* \"access/Roles.sol\":570:759  function remove(Role storage role, address account) internal {... */\n    tag_44:\n        /* \"access/Roles.sol\":669:670  0 */\n      0x00\n        /* \"access/Roles.sol\":650:671  account != address(0) */\n      0xffffffffffffffffffffffffffffffffffffffff\n      and\n        /* \"access/Roles.sol\":650:657  account */\n      dup2\n        /* \"access/Roles.sol\":650:671  account != address(0) */\n      0xffffffffffffffffffffffffffffffffffffffff\n      and\n      sub\n        /* \"access/Roles.sol\":642:672  require(account != address(0)) */\n      tag_46\n      jumpi\n      0x00\n      dup1\n      revert\n    tag_46:\n        /* \"access/Roles.sol\":691:709  has(role, account) */\n      tag_47\n        /* \"access/Roles.sol\":695:699  role */\n      dup3\n        /* \"access/Roles.sol\":701:708  account */\n      dup3\n        /* \"access/Roles.sol\":691:694  has */\n      tag_20\n        /* \"access/Roles.sol\":691:709  has(role, account) */\n      jump\t// in\n    tag_47:\n        /* \"access/Roles.sol\":683:710  require(has(role, account)) */\n      tag_48\n      jumpi\n      0x00\n      dup1\n      revert\n    tag_48:\n        /* \"access/Roles.sol\":746:751  false */\n      0x00\n        /* \"access/Roles.sol\":723:727  role */\n      dup3\n        /* \"access/Roles.sol\":723:734  role.bearer */\n      0x00\n      add\n        /* \"access/Roles.sol\":723:743  role.bearer[account] */\n      0x00\n        /* \"access/Roles.sol\":735:742  account */\n      dup4\n        /* \"access/Roles.sol\":723:743  role.bearer[account] */\n      0xffffffffffffffffffffffffffffffffffffffff\n      and\n      0xffffffffffffffffffffffffffffffffffffffff\n      and\n      dup2\n      mstore\n      0x20\n      add\n      swap1\n      dup2\n      mstore\n      0x20\n      add\n      0x00\n      keccak256\n      0x00\n        /* \"access/Roles.sol\":723:751  role.bearer[account] = false */\n      0x0100\n      exp\n      dup2\n      sload\n      dup2\n      0xff\n      mul\n      not\n      and\n      swap1\n      dup4\n      iszero\n      iszero\n      mul\n      or\n      swap1\n      sstore\n      pop\n        /* \"access/Roles.sol\":570:759  function remove(Role storage role, address account) internal {... */\n      pop\n      pop\n      jump\t// out\n        /* \"#utility.yul\":88:205   */\n    tag_50:\n        /* \"#utility.yul\":197:198   */\n      0x00\n        /* \"#utility.yul\":194:195   */\n      dup1\n        /* \"#utility.yul\":187:199   */\n      revert\n        /* \"#utility.yul\":334:460   */\n    tag_52:\n        /* \"#utility.yul\":371:378   */\n      0x00\n        /* \"#utility.yul\":411:453   */\n      0xffffffffffffffffffffffffffffffffffffffff\n        /* \"#utility.yul\":404:409   */\n      dup3\n        /* \"#utility.yul\":400:454   */\n      and\n        /* \"#utility.yul\":389:454   */\n      swap1\n      pop\n        /* \"#utility.yul\":334:460   */\n      swap2\n      swap1\n      pop\n      jump\t// out\n        /* \"#utility.yul\":466:562   */\n    tag_53:\n        /* \"#utility.yul\":503:510   */\n      0x00\n        /* \"#utility.yul\":532:556   */\n      tag_64\n        /* \"#utility.yul\":550:555   */\n      dup3\n        /* \"#utility.yul\":532:556   */\n      tag_52\n      jump\t// in\n    tag_64:\n        /* \"#utility.yul\":521:556   */\n      swap1\n      pop\n        /* \"#utility.yul\":466:562   */\n      swap2\n      swap1\n      pop\n      jump\t// out\n        /* \"#utility.yul\":568:690   */\n    tag_54:\n        /* \"#utility.yul\":641:665   */\n      tag_66\n        /* \"#utility.yul\":659:664   */\n      dup2\n        /* \"#utility.yul\":641:665   */\n      tag_53\n      jump\t// in\n    tag_66:\n        /* \"#utility.yul\":634:639   */\n      dup2\n        /* \"#utility.yul\":631:666   */\n      eq\n        /* \"#utility.yul\":621:684   */\n      tag_67\n      jumpi\n        /* \"#utility.yul\":680:681   */\n      0x00\n        /* \"#utility.yul\":677:678   */\n      dup1\n        /* \"#utility.yul\":670:682   */\n      revert\n        /* \"#utility.yul\":621:684   */\n    tag_67:\n        /* \"#utility.yul\":568:690   */\n      pop\n      jump\t// out\n        /* \"#utility.yul\":696:835   */\n    tag_55:\n        /* \"#utility.yul\":742:747   */\n      0x00\n        /* \"#utility.yul\":780:786   */\n      dup2\n        /* \"#utility.yul\":767:787   */\n      calldataload\n        /* \"#utility.yul\":758:787   */\n      swap1\n      pop\n        /* \"#utility.yul\":796:829   */\n      tag_69\n        /* \"#utility.yul\":823:828   */\n      dup2\n        /* \"#utility.yul\":796:829   */\n      tag_54\n      jump\t// in\n    tag_69:\n        /* \"#utility.yul\":696:835   */\n      swap3\n      swap2\n      pop\n      pop\n      jump\t// out\n        /* \"#utility.yul\":841:1170   */\n    tag_8:\n        /* \"#utility.yul\":900:906   */\n      0x00\n        /* \"#utility.yul\":949:951   */\n      0x20\n        /* \"#utility.yul\":937:946   */\n      dup3\n        /* \"#utility.yul\":928:935   */\n      dup5\n        /* \"#utility.yul\":924:947   */\n      sub\n        /* \"#utility.yul\":920:952   */\n      slt\n        /* \"#utility.yul\":917:1036   */\n      iszero\n      tag_71\n      jumpi\n        /* \"#utility.yul\":955:1034   */\n      tag_72\n      tag_50\n      jump\t// in\n    tag_72:\n        /* \"#utility.yul\":917:1036   */\n    tag_71:\n        /* \"#utility.yul\":1075:1076   */\n      0x00\n        /* \"#utility.yul\":1100:1153   */\n      tag_73\n        /* \"#utility.yul\":1145:1152   */\n      dup5\n        /* \"#utility.yul\":1136:1142   */\n      dup3\n        /* \"#utility.yul\":1125:1134   */\n      dup6\n        /* \"#utility.yul\":1121:1143   */\n      add\n        /* \"#utility.yul\":1100:1153   */\n      tag_55\n      jump\t// in\n    tag_73:\n        /* \"#utility.yul\":1090:1153   */\n      swap2\n      pop\n        /* \"#utility.yul\":1046:1163   */\n      pop\n        /* \"#utility.yul\":841:1170   */\n      swap3\n      swap2\n      pop\n      pop\n      jump\t// out\n        /* \"#utility.yul\":1176:1266   */\n    tag_56:\n        /* \"#utility.yul\":1210:1217   */\n      0x00\n        /* \"#utility.yul\":1253:1258   */\n      dup2\n        /* \"#utility.yul\":1246:1259   */\n      iszero\n        /* \"#utility.yul\":1239:1260   */\n      iszero\n        /* \"#utility.yul\":1228:1260   */\n      swap1\n      pop\n        /* \"#utility.yul\":1176:1266   */\n      swap2\n      swap1\n      pop\n      jump\t// out\n        /* \"#utility.yul\":1272:1381   */\n    tag_57:\n        /* \"#utility.yul\":1353:1374   */\n      tag_76\n        /* \"#utility.yul\":1368:1373   */\n      dup2\n        /* \"#utility.yul\":1353:1374   */\n      tag_56\n      jump\t// in\n    tag_76:\n        /* \"#utility.yul\":1348:1351   */\n      dup3\n        /* \"#utility.yul\":1341:1375   */\n      mstore\n        /* \"#utility.yul\":1272:1381   */\n      pop\n      pop\n      jump\t// out\n        /* \"#utility.yul\":1387:1597   */\n    tag_11:\n        /* \"#utility.yul\":1474:1478   */\n      0x00\n        /* \"#utility.yul\":1512:1514   */\n      0x20\n        /* \"#utility.yul\":1501:1510   */\n      dup3\n        /* \"#utility.yul\":1497:1515   */\n      add\n        /* \"#utility.yul\":1489:1515   */\n      swap1\n      pop\n        /* \"#utility.yul\":1525:1590   */\n      tag_78\n        /* \"#utility.yul\":1587:1588   */\n      0x00\n        /* \"#utility.yul\":1576:1585   */\n      dup4\n        /* \"#utility.yul\":1572:1589   */\n      add\n        /* \"#utility.yul\":1563:1569   */\n      dup5\n        /* \"#utility.yul\":1525:1590   */\n      tag_57\n      jump\t// in\n    tag_78:\n        /* \"#utility.yul\":1387:1597   */\n      swap3\n      swap2\n      pop\n      pop\n      jump\t// out\n\n    auxdata: 0xa264697066735822122078896675cfc2426a2715b88d1c5a72f053a6d49490655dda2ca501c94fc8133664736f6c63430008120033\n}\n",
				"bytecode": {
					"linkReferences": {},
					"object": "608060405234801561001057600080fd5b5061002d61002261003260201b60201c565b61003a60201b60201c565b6101da565b600033905090565b61005281600061009860201b6100f01790919060201c565b8073ffffffffffffffffffffffffffffffffffffffff167f561138658ca49a8540dc70dcfe64c9026c1c5b9344642242dd6562970f9c127860405160405180910390a250565b600073ffffffffffffffffffffffffffffffffffffffff168173ffffffffffffffffffffffffffffffffffffffff16036100d157600080fd5b6100e1828261014960201b60201c565b156100eb57600080fd5b60018260000160008373ffffffffffffffffffffffffffffffffffffffff1673ffffffffffffffffffffffffffffffffffffffff16815260200190815260200160002060006101000a81548160ff0219169083151502179055505050565b60008073ffffffffffffffffffffffffffffffffffffffff168273ffffffffffffffffffffffffffffffffffffffff160361018357600080fd5b8260000160008373ffffffffffffffffffffffffffffffffffffffff1673ffffffffffffffffffffffffffffffffffffffff16815260200190815260200160002060009054906101000a900460ff16905092915050565b61048e806101e96000396000f3fe608060405234801561001057600080fd5b50600436106100415760003560e01c806317d4a491146100465780635f8a5afa14610076578063de07f34e14610092575b600080fd5b610060600480360381019061005b91906103f5565b61009c565b60405161006d919061043d565b60405180910390f35b610090600480360381019061008b91906103f5565b6100b9565b005b61009a6100de565b005b60006100b282600061019b90919063ffffffff16565b9050919050565b6100c96100c461022c565b61009c565b6100d257600080fd5b6100db81610234565b50565b6100ee6100e961022c565b61028e565b565b600073ffffffffffffffffffffffffffffffffffffffff168173ffffffffffffffffffffffffffffffffffffffff160361012957600080fd5b610133828261019b565b1561013d57600080fd5b60018260000160008373ffffffffffffffffffffffffffffffffffffffff1673ffffffffffffffffffffffffffffffffffffffff16815260200190815260200160002060006101000a81548160ff0219169083151502179055505050565b60008073ffffffffffffffffffffffffffffffffffffffff168273ffffffffffffffffffffffffffffffffffffffff16036101d557600080fd5b8260000160008373ffffffffffffffffffffffffffffffffffffffff1673ffffffffffffffffffffffffffffffffffffffff16815260200190815260200160002060009054906101000a900460ff16905092915050565b600033905090565b6102488160006100f090919063ffffffff16565b8073ffffffffffffffffffffffffffffffffffffffff167f561138658ca49a8540dc70dcfe64c9026c1c5b9344642242dd6562970f9c127860405160405180910390a250565b6102a28160006102e890919063ffffffff16565b8073ffffffffffffffffffffffffffffffffffffffff167f2fed5abf6a80d6dfe30b4895481b2fc5d7dce5f8f7b931832f4a2947d5040c7f60405160405180910390a250565b600073ffffffffffffffffffffffffffffffffffffffff168173ffffffffffffffffffffffffffffffffffffffff160361032157600080fd5b61032b828261019b565b61033457600080fd5b60008260000160008373ffffffffffffffffffffffffffffffffffffffff1673ffffffffffffffffffffffffffffffffffffffff16815260200190815260200160002060006101000a81548160ff0219169083151502179055505050565b600080fd5b600073ffffffffffffffffffffffffffffffffffffffff82169050919050565b60006103c282610397565b9050919050565b6103d2816103b7565b81146103dd57600080fd5b50565b6000813590506103ef816103c9565b92915050565b60006020828403121561040b5761040a610392565b5b6000610419848285016103e0565b91505092915050565b60008115159050919050565b61043781610422565b82525050565b6000602082019050610452600083018461042e565b9291505056fea264697066735822122078896675cfc2426a2715b88d1c5a72f053a6d49490655dda2ca501c94fc8133664736f6c63430008120033",
					"opcodes": "PUSH1 0x80 PUSH1 0x40 MSTORE CALLVALUE DUP1 ISZERO PUSH2 0x10 JUMPI PUSH1 0x0 DUP1 REVERT JUMPDEST POP PUSH2 0x2D PUSH2 0x22 PUSH2 0x32 PUSH1 0x20 SHL PUSH1 0x20 SHR JUMP JUMPDEST PUSH2 0x3A PUSH1 0x20 SHL PUSH1 0x20 SHR JUMP JUMPDEST PUSH2 0x1DA JUMP JUMPDEST PUSH1 0x0 CALLER SWAP1 POP SWAP1 JUMP JUMPDEST PUSH2 0x52 DUP2 PUSH1 0x0 PUSH2 0x98 PUSH1 0x20 SHL PUSH2 0xF0 OR SWAP1 SWAP2 SWAP1 PUSH1 0x20 SHR JUMP JUMPDEST DUP1 PUSH20 0xFFFFFFFFFFFFFFFFFFFFFFFFFFFFFFFFFFFFFFFF AND PUSH32 0x561138658CA49A8540DC70DCFE64C9026C1C5B9344642242DD6562970F9C1278 PUSH1 0x40 MLOAD PUSH1 0x40 MLOAD DUP1 SWAP2 SUB SWAP1 LOG2 POP JUMP JUMPDEST PUSH1 0x0 PUSH20 0xFFFFFFFFFFFFFFFFFFFFFFFFFFFFFFFFFFFFFFFF AND DUP2 PUSH20 0xFFFFFFFFFFFFFFFFFFFFFFFFFFFFFFFFFFFFFFFF AND SUB PUSH2 0xD1 JUMPI PUSH1 0x0 DUP1 REVERT JUMPDEST PUSH2 0xE1 DUP3 DUP3 PUSH2 0x149 PUSH1 0x20 SHL PUSH1 0x20 SHR JUMP JUMPDEST ISZERO PUSH2 0xEB JUMPI PUSH1 0x0 DUP1 REVERT JUMPDEST PUSH1 0x1 DUP3 PUSH1 0x0 ADD PUSH1 0x0 DUP4 PUSH20 0xFFFFFFFFFFFFFFFFFFFFFFFFFFFFFFFFFFFFFFFF AND PUSH20 0xFFFFFFFFFFFFFFFFFFFFFFFFFFFFFFFFFFFFFFFF AND DUP2 MSTORE PUSH1 0x20 ADD SWAP1 DUP2 MSTORE PUSH1 0x20 ADD PUSH1 0x0 KECCAK256 PUSH1 0x0 PUSH2 0x100 EXP DUP2 SLOAD DUP2 PUSH1 0xFF MUL NOT AND SWAP1 DUP4 ISZERO ISZERO MUL OR SWAP1 SSTORE POP POP POP JUMP JUMPDEST PUSH1 0x0 DUP1 PUSH20 0xFFFFFFFFFFFFFFFFFFFFFFFFFFFFFFFFFFFFFFFF AND DUP3 PUSH20 0xFFFFFFFFFFFFFFFFFFFFFFFFFFFFFFFFFFFFFFFF AND SUB PUSH2 0x183 JUMPI PUSH1 0x0 DUP1 REVERT JUMPDEST DUP3 PUSH1 0x0 ADD PUSH1 0x0 DUP4 PUSH20 0xFFFFFFFFFFFFFFFFFFFFFFFFFFFFFFFFFFFFFFFF AND PUSH20 0xFFFFFFFFFFFFFFFFFFFFFFFFFFFFFFFFFFFFFFFF AND DUP2 MSTORE PUSH1 0x20 ADD SWAP1 DUP2 MSTORE PUSH1 0x20 ADD PUSH1 0x0 KECCAK256 PUSH1 0x0 SWAP1 SLOAD SWAP1 PUSH2 0x100 EXP SWAP1 DIV PUSH1 0xFF AND SWAP1 POP SWAP3 SWAP2 POP POP JUMP JUMPDEST PUSH2 0x48E DUP1 PUSH2 0x1E9 PUSH1 0x0 CODECOPY PUSH1 0x0 RETURN INVALID PUSH1 0x80 PUSH1 0x40 MSTORE CALLVALUE DUP1 ISZERO PUSH2 0x10 JUMPI PUSH1 0x0 DUP1 REVERT JUMPDEST POP PUSH1 0x4 CALLDATASIZE LT PUSH2 0x41 JUMPI PUSH1 0x0 CALLDATALOAD PUSH1 0xE0 SHR DUP1 PUSH4 0x17D4A491 EQ PUSH2 0x46 JUMPI DUP1 PUSH4 0x5F8A5AFA EQ PUSH2 0x76 JUMPI DUP1 PUSH4 0xDE07F34E EQ PUSH2 0x92 JUMPI JUMPDEST PUSH1 0x0 DUP1 REVERT JUMPDEST PUSH2 0x60 PUSH1 0x4 DUP1 CALLDATASIZE SUB DUP2 ADD SWAP1 PUSH2 0x5B SWAP2 SWAP1 PUSH2 0x3F5 JUMP JUMPDEST PUSH2 0x9C JUMP JUMPDEST PUSH1 0x40 MLOAD PUSH2 0x6D SWAP2 SWAP1 PUSH2 0x43D JUMP JUMPDEST PUSH1 0x40 MLOAD DUP1 SWAP2 SUB SWAP1 RETURN JUMPDEST PUSH2 0x90 PUSH1 0x4 DUP1 CALLDATASIZE SUB DUP2 ADD SWAP1 PUSH2 0x8B SWAP2 SWAP1 PUSH2 0x3F5 JUMP JUMPDEST PUSH2 0xB9 JUMP JUMPDEST STOP JUMPDEST PUSH2 0x9A PUSH2 0xDE JUMP JUMPDEST STOP JUMPDEST PUSH1 0x0 PUSH2 0xB2 DUP3 PUSH1 0x0 PUSH2 0x19B SWAP1 SWAP2 SWAP1 PUSH4 0xFFFFFFFF AND JUMP JUMPDEST SWAP1 POP SWAP2 SWAP1 POP JUMP JUMPDEST PUSH2 0xC9 PUSH2 0xC4 PUSH2 0x22C JUMP JUMPDEST PUSH2 0x9C JUMP JUMPDEST PUSH2 0xD2 JUMPI PUSH1 0x0 DUP1 REVERT JUMPDEST PUSH2 0xDB DUP2 PUSH2 0x234 JUMP JUMPDEST POP JUMP JUMPDEST PUSH2 0xEE PUSH2 0xE9 PUSH2 0x22C JUMP JUMPDEST PUSH2 0x28E JUMP JUMPDEST JUMP JUMPDEST PUSH1 0x0 PUSH20 0xFFFFFFFFFFFFFFFFFFFFFFFFFFFFFFFFFFFFFFFF AND DUP2 PUSH20 0xFFFFFFFFFFFFFFFFFFFFFFFFFFFFFFFFFFFFFFFF AND SUB PUSH2 0x129 JUMPI PUSH1 0x0 DUP1 REVERT JUMPDEST PUSH2 0x133 DUP3 DUP3 PUSH2 0x19B JUMP JUMPDEST ISZERO PUSH2 0x13D JUMPI PUSH1 0x0 DUP1 REVERT JUMPDEST PUSH1 0x1 DUP3 PUSH1 0x0 ADD PUSH1 0x0 DUP4 PUSH20 0xFFFFFFFFFFFFFFFFFFFFFFFFFFFFFFFFFFFFFFFF AND PUSH20 0xFFFFFFFFFFFFFFFFFFFFFFFFFFFFFFFFFFFFFFFF AND DUP2 MSTORE PUSH1 0x20 ADD SWAP1 DUP2 MSTORE PUSH1 0x20 ADD PUSH1 0x0 KECCAK256 PUSH1 0x0 PUSH2 0x100 EXP DUP2 SLOAD DUP2 PUSH1 0xFF MUL NOT AND SWAP1 DUP4 ISZERO ISZERO MUL OR SWAP1 SSTORE POP POP POP JUMP JUMPDEST PUSH1 0x0 DUP1 PUSH20 0xFFFFFFFFFFFFFFFFFFFFFFFFFFFFFFFFFFFFFFFF AND DUP3 PUSH20 0xFFFFFFFFFFFFFFFFFFFFFFFFFFFFFFFFFFFFFFFF AND SUB PUSH2 0x1D5 JUMPI PUSH1 0x0 DUP1 REVERT JUMPDEST DUP3 PUSH1 0x0 ADD PUSH1 0x0 DUP4 PUSH20 0xFFFFFFFFFFFFFFFFFFFFFFFFFFFFFFFFFFFFFFFF AND PUSH20 0xFFFFFFFFFFFFFFFFFFFFFFFFFFFFFFFFFFFFFFFF AND DUP2 MSTORE PUSH1 0x20 ADD SWAP1 DUP2 MSTORE PUSH1 0x20 ADD PUSH1 0x0 KECCAK256 PUSH1 0x0 SWAP1 SLOAD SWAP1 PUSH2 0x100 EXP SWAP1 DIV PUSH1 0xFF AND SWAP1 POP SWAP3 SWAP2 POP POP JUMP JUMPDEST PUSH1 0x0 CALLER SWAP1 POP SWAP1 JUMP JUMPDEST PUSH2 0x248 DUP2 PUSH1 0x0 PUSH2 0xF0 SWAP1 SWAP2 SWAP1 PUSH4 0xFFFFFFFF AND JUMP JUMPDEST DUP1 PUSH20 0xFFFFFFFFFFFFFFFFFFFFFFFFFFFFFFFFFFFFFFFF AND PUSH32 0x561138658CA49A8540DC70DCFE64C9026C1C5B9344642242DD6562970F9C1278 PUSH1 0x40 MLOAD PUSH1 0x40 MLOAD DUP1 SWAP2 SUB SWAP1 LOG2 POP JUMP JUMPDEST PUSH2 0x2A2 DUP2 PUSH1 0x0 PUSH2 0x2E8 SWAP1 SWAP2 SWAP1 PUSH4 0xFFFFFFFF AND JUMP JUMPDEST DUP1 PUSH20 0xFFFFFFFFFFFFFFFFFFFFFFFFFFFFFFFFFFFFFFFF AND PUSH32 0x2FED5ABF6A80D6DFE30B4895481B2FC5D7DCE5F8F7B931832F4A2947D5040C7F PUSH1 0x40 MLOAD PUSH1 0x40 MLOAD DUP1 SWAP2 SUB SWAP1 LOG2 POP JUMP JUMPDEST PUSH1 0x0 PUSH20 0xFFFFFFFFFFFFFFFFFFFFFFFFFFFFFFFFFFFFFFFF AND DUP2 PUSH20 0xFFFFFFFFFFFFFFFFFFFFFFFFFFFFFFFFFFFFFFFF AND SUB PUSH2 0x321 JUMPI PUSH1 0x0 DUP1 REVERT JUMPDEST PUSH2 0x32B DUP3 DUP3 PUSH2 0x19B JUMP JUMPDEST PUSH2 0x334 JUMPI PUSH1 0x0 DUP1 REVERT JUMPDEST PUSH1 0x0 DUP3 PUSH1 0x0 ADD PUSH1 0x0 DUP4 PUSH20 0xFFFFFFFFFFFFFFFFFFFFFFFFFFFFFFFFFFFFFFFF AND PUSH20 0xFFFFFFFFFFFFFFFFFFFFFFFFFFFFFFFFFFFFFFFF AND DUP2 MSTORE PUSH1 0x20 ADD SWAP1 DUP2 MSTORE PUSH1 0x20 ADD PUSH1 0x0 KECCAK256 PUSH1 0x0 PUSH2 0x100 EXP DUP2 SLOAD DUP2 PUSH1 0xFF MUL NOT AND SWAP1 DUP4 ISZERO ISZERO MUL OR SWAP1 SSTORE POP POP POP JUMP JUMPDEST PUSH1 0x0 DUP1 REVERT JUMPDEST PUSH1 0x0 PUSH20 0xFFFFFFFFFFFFFFFFFFFFFFFFFFFFFFFFFFFFFFFF DUP3 AND SWAP1 POP SWAP2 SWAP1 POP JUMP JUMPDEST PUSH1 0x0 PUSH2 0x3C2 DUP3 PUSH2 0x397 JUMP JUMPDEST SWAP1 POP SWAP2 SWAP1 POP JUMP JUMPDEST PUSH2 0x3D2 DUP2 PUSH2 0x3B7 JUMP JUMPDEST DUP2 EQ PUSH2 0x3DD JUMPI PUSH1 0x0 DUP1 REVERT JUMPDEST POP JUMP JUMPDEST PUSH1 0x0 DUP2 CALLDATALOAD SWAP1 POP PUSH2 0x3EF DUP2 PUSH2 0x3C9 JUMP JUMPDEST SWAP3 SWAP2 POP POP JUMP JUMPDEST PUSH1 0x0 PUSH1 0x20 DUP3 DUP5 SUB SLT ISZERO PUSH2 0x40B JUMPI PUSH2 0x40A PUSH2 0x392 JUMP JUMPDEST JUMPDEST PUSH1 0x0 PUSH2 0x419 DUP5 DUP3 DUP6 ADD PUSH2 0x3E0 JUMP JUMPDEST SWAP2 POP POP SWAP3 SWAP2 POP POP JUMP JUMPDEST PUSH1 0x0 DUP2 ISZERO ISZERO SWAP1 POP SWAP2 SWAP1 POP JUMP JUMPDEST PUSH2 0x437 DUP2 PUSH2 0x422 JUMP JUMPDEST DUP3 MSTORE POP POP JUMP JUMPDEST PUSH1 0x0 PUSH1 0x20 DUP3 ADD SWAP1 POP PUSH2 0x452 PUSH1 0x0 DUP4 ADD DUP5 PUSH2 0x42E JUMP JUMPDEST SWAP3 SWAP2 POP POP JUMP INVALID LOG2 PUSH5 0x6970667358 0x22 SLT KECCAK256 PUSH25 0x896675CFC2426A2715B88D1C5A72F053A6D49490655DDA2CA5 ADD 0xC9 0x4F 0xC8 SGT CALLDATASIZE PUSH5 0x736F6C6343 STOP ADDMOD SLT STOP CALLER "
				},
				"gasEstimates": {
					"creation": {
						"codeDepositCost": "233200",
						"executionCost": "infinite",
						"totalCost": "infinite"
					},
					"external": {
						"addManufacturer(address)": "infinite",
						"isManufacturer(address)": "infinite",
						"renounceManufacturer()": "infinite"
					},
					"internal": {
						"_addManufacturer(address)": "infinite",
						"_removeManufacturer(address)": "infinite"
					}
				},
				"methodIdentifiers": {
					"addManufacturer(address)": "5f8a5afa",
					"isManufacturer(address)": "17d4a491",
					"renounceManufacturer()": "de07f34e"
				}
			},
			"storageLayout": {
				"storage": [
					{
						"astId": 20,
						"contract": "access/ManufacturerRole.sol:ManufacturerRole",
						"label": "Manufacturers",
						"offset": 0,
						"slot": "0",
						"type": "t_struct(Role)115_storage"
					}
				],
				"types": {
					"t_address": {
						"encoding": "inplace",
						"label": "address",
						"numberOfBytes": "20"
					},
					"t_bool": {
						"encoding": "inplace",
						"label": "bool",
						"numberOfBytes": "1"
					},
					"t_mapping(t_address,t_bool)": {
						"encoding": "mapping",
						"key": "t_address",
						"label": "mapping(address => bool)",
						"numberOfBytes": "32",
						"value": "t_bool"
					},
					"t_struct(Role)115_storage": {
						"encoding": "inplace",
						"label": "struct Roles.Role",
						"members": [
							{
								"astId": 114,
								"contract": "access/ManufacturerRole.sol:ManufacturerRole",
								"label": "bearer",
								"offset": 0,
								"slot": "0",
								"type": "t_mapping(t_address,t_bool)"
							}
						],
						"numberOfBytes": "32"
					}
				}
			},
			"userdoc": {
				"kind": "user",
				"methods": {},
				"version": 1
			}
		}
	}
}